:100000007EC000000C94B50D9BC0000099C000009C
:1000100097C0000095C0000093C0000091C0000090
:100020008FC000008DC000008BC0000089C00000A0
:1000300087C0000085C0000083C0000081C00000B0
:100040007FC000000C94710A7BC0000079C00000E2
:1000500077C0000075C0000073C0000071C00000D0
:100060006FC000000C941C0F6BC0000069C0000042
:1000700067C0000065C0000063C0000061C00000F0
:100080000C94480B5DC000005BC0000059C000002C
:100090000C944D0F55C0000053C0000051C000002B
:1000A0004FC000004DC000004BC0000049C0000020
:1000B00047C0000045C0000043C0000041C0000030
:1000C0003FC000003DC000003BC0000039C0000040
:1000D00037C0000035C0000033C0000031C0000050
:1000E0002FC0000036061C0636064506EA065406F2
:1000F0000D063D077207140816084C08C3081124A2
:100100001FBECFEFD1E2DEBFCDBF00E00CBF12E0DB
:10011000A0E0B2E0E2EAF1E200E00BBF02C007902B
:100120000D92A031B107D9F725E1A0E1B2E001C0FD
:100130001D92A232B207E1F70E945F0B0C94CF1020
:100140005FCF0F921F922F923F924F925F926F92CA
:100150007F928F929F92AF92BF92CF92DF92EF9257
:10016000FF920F931F932F933F934F935F936F9340
:100170007F938F939F93AF93BF93CF93DF93EF932F
:10018000FF930FB70F93FCB7FF93EDB7FEB7E09364
:100190001F15F0932015E091FD14F091FE14EDBFB2
:1001A000FEBFFF91FCBF0F910FBFFF91EF91DF9159
:1001B000CF91BF91AF919F918F917F916F915F91FF
:1001C0004F913F912F911F910F91FF90EF90DF90F2
:1001D000CF90BF90AF909F908F907F906F905F90E7
:1001E0004F903F902F901F900F9018950F921F9255
:1001F0002F923F924F925F926F927F928F929F9237
:10020000AF92BF92CF92DF92EF92FF920F931F9324
:100210002F933F934F935F936F937F938F939F930E
:10022000AF93BF93CF93DF93EF93FF930FB70F93EA
:10023000FCB7FF93EDB7FEB7E093FD14F093FE1407
:10024000E0911F15F0912015EDBFFEBFFF91FCBF9F
:100250000F910FBFFF91EF91DF91CF91BF91AF91C0
:100260009F918F917F916F915F914F913F912F91CE
:100270001F910F91FF90EF90DF90CF90BF90AF90C4
:100280009F908F907F906F905F904F903F902F90B6
:100290001F900F90089580E480937C0087E88093FE
:1002A0007A000895ECE7F0E090818770987F892BC1
:1002B0008083EAE7F0E0808180648083808186FD2E
:1002C000FDCF8091780090917900089581E080932E
:1002D0001002EBE0F1E080818058808383ED90E3B1
:1002E0000197F1F700C00000808180588083089555
:1002F000EAE0F1E08081816080830895EAE0F1E046
:100300008081826080830895EAE0F1E080818460EA
:1003100080830895EAE0F1E080818062808308951F
:10032000EAE0F1E08081806480830895EBE0F1E011
:10033000908121E030E002C0220F331F8A95E2F75E
:10034000292B20830895EBE0F1E0908121E030E05B
:1003500002C0220F331F8A95E2F7209529232083BC
:100360000895FFCF0F931F93CF93DF930E94570EF3
:1003700092DF0E94C4099093B0148093AF140E943E
:10038000C4099093B6148093B5140E94DF0990932A
:10039000BC148093BB140E94DF099093B414809323
:1003A000B314579A9A9A5F98A298CAE0D0E000E0F6
:1003B00010E087E077DF080F191F2197D1F7C801F8
:1003C0006AE070E00E94B410072E000C880B990BB5
:1003D0000E94B10F23E333E343EB5FE30E94151068
:1003E0000E947E0F7093AC146093AB14F8D0DF9131
:1003F000CF911F910F910895823311F128F480332A
:1004000041F0813369F04CC0833351F18433C9F139
:1004100047C080E090E8909301028093000240C0C2
:100420008091110290911202892B19F088E39FEFBD
:1004300002C08FEF9FEF909301028093000230C0C3
:100440008091110290911202892B19F088EC90E0B2
:1004500002C081E090E0909301028093000220C0EE
:100460008091110290911202181619061CF088E36F
:100470009FEF02C080E090E09093120280931102FF
:100480000FC0809111029091120299231CF088EC08
:1004900090E002C080E090E09093120280931102FD
:1004A00060910002709101028091110290911202FC
:1004B0000C94A80E089560E070E087E80E94E90EB1
:1004C0002FEF89EF90E0215080409040E1F700C08D
:1004D0000000089587E0E6DE2091AB143091AC1463
:1004E0002817390710F4A29AFFCF81E090E00E940C
:1004F0000C0F853008F44EC061E070E081E090E0C0
:100500000E94FB0ED82F61E070E084E090E00E9432
:10051000FB0EC82F81E090E00E940C0F61E070E0BC
:100520000E94E90E61E070E08D2F0E94E90E61E00B
:1005300070E08C2F0E94E90ED33741F5C53631F5B6
:1005400061E070E082E090E00E94FB0EC82F61E065
:1005500070E083E090E00E94FB0ED82F61E070E035
:100560008C2F0E94E90E61E070E08D2F0E94E90E51
:10057000DF3631F461E070E08FE60E94E90E5F9AA9
:10058000C03319F08C2F38DF01C095DF81E090E097
:100590000E94140F5F989ECF41E050E060E070E051
:1005A00082EB91E027D79093BA148093B91441E07D
:1005B00050E061E070E08AE692E01CD79093B214BC
:1005C0008093B11441E050E068E070E081EB91E08D
:1005D00011D79093AA148093A91401C00895809113
:1005E000230290912402892B51F0F894E091250286
:1005F000F0912602E35FFE4F84E08083F7CD0895FB
:10060000EF92FF920F931F93CF93DF931F921F924E
:10061000CDB7DEB79A838983DC017C0104E0E00E6C
:10062000F11C80E091E0F7018C0111920150104023
:10063000E1F7FD01ED5FFE4F8FEE92E08083319791
:10064000908331976083319770833197108290E067
:1006500092939F5F9232E1F7A452BF4FE981FA81F2
:10066000B383A283DF01A55FBE4F11967C936E9387
:1006700012961C9280911F02909120029183808398
:1006800089819A81FC01EB5FFE4F51834083329652
:100690005183408332963183208371961182108278
:1006A000349723E630E0318320832091210230917A
:1006B00022022F5F3F4F309322022093210220918C
:1006C0001F02309120022F5F3F4F30932002209372
:1006D0001F02729781E0808347E152E06DED74E183
:1006E000CE0101960E940B0CE981FA8180819181F3
:1006F0000F900F90DF91CF911F910F91FF90EF908E
:100700000895CF93DF93EC01809121029091220212
:10071000409721F180918B03882371F0A9EAB4E01E
:10072000E1E0F0E09C91992349F03196A25EBE4F42
:10073000E031F105B9F702C0E0E0F0E09A01AB0169
:10074000BE01AEE1B1E0EA9FC001EB9F900DFA9FC0
:10075000900D112489579D4F53DF00C0DF91CF9139
:100760000895FC0180911D0290911E029183808367
:1007700081E0828380911D0290911E0201969093E8
:100780001E0280931D02808191810895FC01809159
:100790001B0290911C029183808381E082831482EA
:1007A000138280911B0290911C02019690931C026F
:1007B00080931B02808191810895CF93DF931092E3
:1007C000220210922102109224021092230210920F
:1007D0001E0210921D0210921C0210921B02109217
:1007E000200210921F02E7E8F2E0ABE8B3E047E630
:1007F00054E12EE131E083E690E0EF01B901199276
:1008000061507040E1F71C9253969C938E935297DF
:1008100011821082E25EFE4FA25EBE4FE417F50722
:1008200061F7E1E5F2E029E832E087E0DF011297C5
:10083000ED01682F19926A95E9F710823796E21751
:10084000F307A1F7E9E2F2E021E532E085E0DF011C
:100850001297ED01682F19926A95E9F71082359683
:10086000E217F307A1F7DF91CF91089581E090E0BF
:100870000E94CF1067E172E08DED94E10E94D60CEA
:10088000FC019093260280932502892B09F4EEDF68
:10089000828193819093FE148093FD1482E0DF01A6
:1008A000AC5FBE4F8C9380819181029720F482E0EF
:1008B00090E03CCD089580819181029721F485E0FC
:1008C00090E034CD089580819181039719F486E0FA
:1008D00090E02CCD08950F931F93CF93DF931F9239
:1008E0001F92CDB7DEB7A0912502B0912602FD017F
:1008F000EC5EFE4F40815181EFE4F2E000E010E059
:10090000808191818417950739F00F5F1F4F3796CB
:1009100008301105A9F7F7C08D919C91119727E038
:10092000209FF001219FF00D1124E15BFD4F2381F9
:1009300034812817390709F0E6C0AC5FBE4F8C91AF
:10094000863009F04DC063E172E08FEF94E1C6D7C5
:100950009A838983009779F487E0809FF001819FD3
:10096000F00D1124E15BFD4F1682158281E0828338
:1009700014821382C8C027E0209FF001219FF00D50
:100980001124E15BFD4F21E030E036832583DC015B
:100990002D913C91348323832091250230912602AE
:1009A000D901A95FBE4F4D915C911197FC01E95FA0
:1009B000FE4F51834083339781E08083F901EB5FE1
:1009C000FE4F4081518111965C934E933197808305
:1009D00047E152E06DED74E1CE0101961CD793C062
:1009E00087E0809FF001819FF00D1124E15BFD4FB6
:1009F000858196818230910560F027E0209FF0018B
:100A0000219FF00D1124E15BFD4F019796838583B3
:100A10007AC063E172E08FEF94E160D79A838983B3
:100A20000097A9F587E0809FF001819FF00D1124C8
:100A3000E15BFD4F81E0828316821582148213826E
:100A4000E0912502F0912602DF01AB5FBE4F8D9150
:100A50009C911197129611969C938E93808191810F
:100A6000029720F482E090E061DC4DC080819181AA
:100A7000029721F485E090E059DC45C080819181A6
:100A8000039709F040C086E090E050DC3CC027E0CE
:100A9000209FF001219FF00D1124E15BFD4F21E02B
:100AA00030E036832583DC012D913C913483238310
:100AB0002091250230912602D901A95FBE4F4D91A8
:100AC0005C911197FC01E95FFE4F5183408333979E
:100AD00081E08083F901EB5FFE4F408151811196E7
:100AE0005C934E933197808347E152E06DED74E162
:100AF000CE01019690D647E152E06DED74E185E2BA
:100B000092E089D6B7DE0F900F90DF91CF911F91C1
:100B10000F9108952F923F924F925F926F927F9222
:100B20008F929F92AF92BF92CF92DF92EF92FF92FD
:100B30000F931F93CF93DF9300D01F92CDB7DEB7F3
:100B40008091230290912402892B09F006C48091A0
:100B5000210290912202892B09F4FFC3F89481E0CD
:100B600090E0909324028093230284DE0F2EF7E21C
:100B7000EF2EF2E0FF2EF02D0F2EFEE1AF2EBB2464
:100B8000B394F02D0F2EF3E62F2E312CF02D882468
:100B90008394912C0F2EFFE4CF2EF2E0DF2EF02D68
:100BA00007E812E00F2EFAE06F2E712CF02DE09185
:100BB0002502F0912602DF01A35FBE4F1C928281C5
:100BC00093819093FE148093FD14BBDA82E090E051
:100BD000BADB85E090E0B7DB86E090E0B4DB8091A3
:100BE0002502909126029C838B838091FD14909125
:100BF000FE14AB81BC8113969C938E931297FD01DA
:100C0000E35FFE4FE081F0E0ED30F10580F68827EC
:100C1000EE58FF4F8F4F0C94C710EB81FC81E45EC0
:100C2000FE4F80819181E7E8F2E020813181281731
:100C3000390709F089C00DC3EB81FC81E75FFE4FE6
:100C400040815181EB81FC81EB5FFE4F60817181BE
:100C5000EB81FC81E55FFE4F8081918152DDEB816C
:100C6000FC81E25FFE4F91838083A1CFEB81FC8109
:100C7000EC5FFE4F81E0808347E152E06DED74E16F
:100C800085E292E0C8D5F6DD92CFEB81FC81EC5F86
:100C9000FE4F83E0808345E152E06DEB74E185E235
:100CA00092E048D5E7DD83CFAB81BC812D913C91AB
:100CB0001197FD01E45EFE4F80819181281739076D
:100CC00051F080819181E7E8F2E02081318128179D
:100CD000390741F4ADC2EB81FC81E65EFE4F9182A3
:100CE00080821AC0E5EAF3E0C401AB81BC81A45E56
:100CF000BE4F6B817C812D913C9111974081518138
:100D00004217530709F497C20196E25EFE4F803105
:100D1000910589F77C836B83EB81FC81E65EFE4F56
:100D200080819181892B09F442CFEB81FC81EC5FBA
:100D3000FE4F81E0808347E152E06DED74E185E292
:100D400092E069D597DD33CFE5EAF3E0C401AB81EA
:100D5000BC81A45EBE4F6B817C812D913C9111972B
:100D6000408151814217530709F476C20196E25E31
:100D7000FE4F8031910589F71ACF8A9D90018B9D96
:100D8000300D9A9D300D1124C90189579D4FFC01EA
:100D9000E65EFE4F11821082EB81FC81E95FFE4F1F
:100DA00020813181FC01E95FFE4F808191818217B2
:100DB000930708F0FCCEEB81FC81EC5FFE4F81E0F5
:100DC000808347E152E06DED74E185E292E023D546
:100DD00051DDEDCEEB81FC81E95FFE4F1182108287
:100DE000EB81FC81EB5FFE4F11821082EB81FC8175
:100DF000EC5FFE4F86E08083DC82CB82E0912502AF
:100E0000F091260280819181AB81BC8113962D9156
:100E10003C9114972817390739F48D919C91EC5E19
:100E2000FE4F9183808357DDEB81FC813796FC83F5
:100E3000EB83E017F10711F7E0912502F09126020C
:100E4000DF01AC5FBE4F1C92529611963C922E92DF
:100E50001F9711967C926E92129711967C926E92C9
:100E60001182108280912102909122020197909329
:100E7000220280932102FEDC9ACE80911D02909185
:100E80001E02089741F1D60112968C91882389F0B1
:100E9000E8E5F2E094014B815C818081882361F078
:100EA0002F5F3F4F379628303105B9F75C834B836E
:100EB00005C020E030E002C05C834B83C901880F8D
:100EC000991F880F991F880F991F821B930B815BB5
:100ED0009D4F47DC2C01EB81FC81E25FFE4F51828C
:100EE000408265CEEB81FC81EC5EFE4F40815181FA
:100EF000F601808191814817590709F4BFC1C401E7
:100F00006B817C81278130854217530709F4B9C171
:100F10000196379688309105A9F749CEFC01EE0F6E
:100F2000FF1FEE0FFF1FEE0FFF1FE81BF90BE15B2A
:100F3000FD4F82E08283AB81BC818D919C91948333
:100F400083838581968101969683858330CEFC01CB
:100F5000EE0FFF1FEE0FFF1FEE0FFF1FE81BF90B39
:100F6000E15BFD4F23813481EB81FC814081518124
:100F70002417350789F4FC01EE0FFF1FEE0FFF1F4A
:100F8000EE0FFF1FE81BF90BE15BFD4F858196819A
:100F90000196968385830BCEE7E8F2E080E090E04F
:100FA0006B817C81408151812417350719F421150B
:100FB000310531F40196E25EFE4F8031910591F7E3
:100FC0007C836B83FB01E95FFE4F208131818A9D29
:100FD000F0018B9DF00D9A9DF00D1124E257FC4F0E
:100FE000408151812417350780F4FB01E95FFE4FF2
:100FF000208131818A9DF0018B9DF00D9A9DF00D2D
:101000001124E257FC4F31832083EB81FC81EC5F9C
:10101000FE4F84E0808343E152E06FEF74E185E2AC
:1010200092E058D327DCC3CD56DCC1CD80911B02A2
:1010300090911C02089731F1D70112968C91882368
:1010400081F0EEE2F2E0C4014B815C812081222339
:1010500059F00196359688309105C1F75C834B8332
:1010600005C080E090E002C05C834B839C01220FAE
:10107000331F220F331F820F931F895D9D4F86DB25
:101080009A838983AB81BC81A25FBE4FE981FA81DB
:101090001196FC93EE938BCDEB81FC81E85EFE4FC5
:1010A00040815181D7018D919C914817590709F4CE
:1010B000FAC0F701C4016B817C812581368142171A
:1010C000530709F4F3C00196359688309105A9F7C6
:1010D0003DC0FC01EE0FFF1FEE0FFF1FE80FF91FD1
:1010E000E95DFD4F2281223069F4FC01EE0FFF1F04
:1010F000EE0FFF1F8E0F9F1FFC01E95DFD4F81E08A
:10110000828324C0EB81FC81EA5EFE4F51834083E1
:10111000EB81FC8120813181FC01EE0FFF1FEE0F7E
:10112000FF1F8E0F9F1FFC01E95DFD4F348323835A
:10113000EB81FC81EC5FFE4F85E0808347E152E06C
:101140006DED74E185E292E066D394DBE0912502D7
:10115000F091260280819181029720F482E090E054
:10116000E5D825CD80819181029721F485E090E03A
:10117000DDD81DCD80819181039709F018CD86E0DF
:1011800090E0D4D814CDEB81FC81E85EFE4F408125
:101190005181D7018D919C914817590709F497C047
:1011A000F701C4016B817C81258136814217530789
:1011B00009F490C00196359688309105A9F7F7CCCF
:1011C000808191814817590709F497C02F5F3F4FDD
:1011D000E25EFE4F2031310599F7CB01FB01EE0FA6
:1011E000FF1FEE0FFF1F8E0F9F1FFC01E95DFD4FDC
:1011F00082E08283DCCC2A9DF0012B9DF00D3A9D8C
:10120000F00D1124EF55FC4F80819181892B09F05D
:10121000CECCEB81FC81EC5FFE4F81E0808347E127
:1012200052E06DED74E185E292E0F5D223DBBFCCB4
:1012300080E090E002C07C836B838A9DF0018B9DEF
:10124000F00D9A9DF00D1124EF55FC4F9182808294
:1012500063CD80E090E002C07C836B838A9DF001C7
:101260008B9DF00D9A9DF00D1124EF55FC4F2081C0
:1012700031812130310509F09ACC7FCD80E090E0BA
:1012800002C07C836B83FC01EE0FFF1FEE0FFF1F7C
:10129000EE0FFF1FE81BF90BE15BFD4F22812130B0
:1012A00009F055CE3BCE80E090E002C07C836B839A
:1012B000FC01EE0FFF1FEE0FFF1FE80FF91FE95DA6
:1012C000FD4F23813481232B09F040CF02CF80E0F2
:1012D00090E002C07C836B83EDE9F3E020813181F3
:1012E0004217530739F0EBEBF4E09401AB81BC817A
:1012F000BC0166CF20E030E003C0BC83AB83CB01F0
:101300002A9DA0012B9D500D3A9D500D1124495747
:101310005D4FFA01EC5FFE4F61E0608372963182AF
:101320002082FC01EE0FFF1FEE0FFF1F8E0F9F1F8D
:10133000FC01E95DFD4F14821382EB81FC81E95FC2
:10134000FE4F80819181FA01E95FFE4F408151811A
:101350004817590708F44FCF2ACC0F900F900F90E1
:101360000F90DF91CF911F910F91FF90EF90DF9041
:10137000CF90BF90AF909F908F907F906F905F9035
:101380004F903F902F9008958091230290912402D6
:10139000892BA1F0F894E0912502F0912602E35FF9
:1013A000FE4F87E080830E94F600E0912502F091D5
:1013B0002602E25FFE4F8081918108950895809119
:1013C000230290912402892BA1F0F894E091250248
:1013D000F0912602E35FFE4F8AE080830E94F600D0
:1013E000E0912502F0912602E25FFE4F808191811B
:1013F000089508952091230230912402232BF1F0C7
:10140000F8942091250230912602F901E35FFE4F06
:10141000A1E0A083329791838083369771836083A4
:101420003496518340830E94F600E0912502F091AA
:101430002602E25FFE4F80819181089562C908957E
:101440008091230290912402892B59F0F894E09125
:101450002502F0912602E35FFE4F82E080830C9428
:10146000F60008950E9484010E9490010E948A0162
:101470000E9478010E947E01F89410928000E1E8B9
:10148000F0E01082109285001092840080E792E0D4
:101490009093890080938800808188608083808118
:1014A00084608083EFE6F0E0808182608083109228
:1014B0009000E1E9F0E01082109295001092940003
:1014C00083E294EF909399008093980080818860E4
:1014D000808380818460808382E08093710078942F
:1014E00008951F920F920FB60F9211240BB60F9210
:1014F000DF92EF92FF920F931F932F933F934F939F
:101500005F936F937F938F939F93AF93BF93EF936B
:10151000FF93CF93DF9300D01F92CDB7DEB78091BA
:1015200015029091160201979A83898389819A8185
:1015300099230CF48FC0E981FA81EE0FFF1FE35469
:10154000FB4E0190F081E02DE05FFE4F2081318164
:101550008091190290911A028217930708F47AC0B9
:10156000E981FA81EE0FFF1FE354FB4E0190F081F9
:10157000E02DEE5EFE4F20813181809194009091AC
:10158000950061E772E0DCD56217730760F562C011
:10159000E981FA81EE0FFF1FE354FB4E0190F081C9
:1015A000E02DE05FFE4F2081318180911902909102
:1015B0001A028217930708F44DC0E981FA81EE0FF1
:1015C000FF1FE354FB4E0190F081E02DEE5EFE4FD5
:1015D00020813181F70180819181B801B1D56217F5
:1015E000730750F437C0DD24D3940F2EF4E9EF2EA7
:1015F000F12CF02D01E712E065E172E08DEB94E152
:101600002DD29C838B83FC01EC5FFE4FD08247E19F
:1016100052E06DED74E1CE010396FDD0EB81FC81CB
:10162000E95FFE4F20813181E0912502F091260291
:10163000E95FFE4F808191812817390708F400DFA8
:1016400089819A8101979A83898389819A819923D3
:101650000CF09ECF0F900F900F900F90DF91CF91D5
:10166000FF91EF91BF91AF919F918F917F916F917A
:101670005F914F913F912F911F910F91FF90EF90AC
:10168000DF900F900BBE0F900FBE0F901F9018951C
:101690001F920F920FB60F9211248F939F938091F8
:1016A000190290911A02019690931A0280931902DE
:1016B0009F918F910F900FBE0F901F901895D2DEC3
:1016C0007CD841E050E060E070E08CEC92E092DE8B
:1016D00021CA0895CF93DF93EA01288139812F3001
:1016E000310529F1E881F9819F012150310972F01A
:1016F000EE0FFF1FE60FF71FDB01329122913383BC
:101700002283EA17FB07C9F72FEF3FEFFC01808127
:1017100091812F5F3F4F220F331FFB01E20FF31F19
:101720009183808388819981019699838883DF9151
:10173000CF910895CF92DF92EF92FF920F931F9374
:10174000CF93DF93EA01288139812F30310509F4E5
:1017500059C0A881B9811197FC01C080D180FD01D9
:10176000EE0FFF1FEB01CE0FDF1F28813981BB2356
:10177000CCF1FE017601C0EFEC1ACEEFFC0ADEEEF2
:10178000CD1ADEEFDD0A0BC0208131813383228345
:10179000119732912291AF3FCFEFBC0719F1E701CA
:1017A00008811981E901C05FDE4F0990D881C02D01
:1017B000C017D10748F3E70108811981E901C05F2B
:1017C000DE4F0990D881C02D0C171D0758F0E60197
:1017D000088119812E5E3E4FE90128813981021767
:1017E000130790F6FC01808191811196AA0FBB1F0F
:1017F000A60FB71F8D939C93EA018881998101966A
:1018000099838883DF91CF911F910F91FF90EF9083
:10181000DF90CF900895CF92DF92EF92FF920F93D7
:101820001F93CF93DF936A01EA01288139812F301A
:10183000310509F44AC02881398121503109FC0160
:1018400000811181F901EE0FFF1FDB01AE0FBF1FF9
:101850004D915C9133233CF1D801A95FBE4FED90CF
:10186000FC90DA01A95FBE4F4D915C91E416F5063C
:10187000D0F0E60FF71F095F1E4FA081B181B3833F
:10188000A28321503109B291A2912F3F4FEF34072B
:1018900051F0E801E880F980A95FBE4F4D915C915D
:1018A000E416F50650F7FC01808191812F5F3F4FD0
:1018B000220F331FFB01E20FF31F91838083E601A8
:1018C00088819981019699838883DF91CF911F91B7
:1018D0000F91FF90EF90DF90CF9008950F931F939B
:1018E000CF93DF93EB0128813981232B09F454C076
:1018F00028813981215031090AF451C0E901CC0F06
:10190000DD1FFC01EC0FFD1FA081B181FD01EC5E2C
:10191000FE4F0190F081E02DE417F50781F40AC035
:10192000BA91AA91FD01EC5EFE4F0081118104176E
:10193000150739F4109759F480E090E032C0C80FD1
:10194000D91F2150310960F780E090E02AC0EB01F7
:10195000488159814150510924173507A4F4A90140
:10196000440F551FFC01E40FF51F82819381819381
:1019700091932F5F3F4FEB014881598141505109AD
:101980002417350794F3FB0180819181019791839E
:1019900080838A2F9B2F05C080E090E002C080E00A
:1019A00090E0DF91CF911F910F910895CF93DF9336
:1019B000EB0128813981232B09F448C0E881F981A2
:1019C0009F01215031090AF444C0EE0FFF1FE80FB8
:1019D000F91F52914291DA01A65EBE4F6D917C9142
:1019E0001197672B59F456976C91613039F4F901CE
:1019F0004115510549F480E090E02DC02150310996
:101A000040F780E090E027C06881798161507109DA
:101A1000261737079CF4EE0FFF1FDC01AE0FBF1F28
:101A200012968D919C9113978D939D932F5F3F4FAD
:101A3000E881F98131972E173F0794F388819981C6
:101A4000019799838883842F952F05C080E090E0CB
:101A500002C080E090E0DF91CF910895DB012D91ED
:101A60003C911197232BA9F02D913C911197F901ED
:101A7000E150F048EE0FFF1FE80FF91F80819181C0
:101A80002D913C9111972150310911963C932E9341
:101A9000089508952D988FEF04D12D9A08950F93EE
:101AA0001F93CF93DF938B01D42F2D988F7180627A
:101AB000F8D0C82F6D2FC801E1D02D9A8C2FDF915F
:101AC000CF911F910F9108950F931F93CF93DF93A1
:101AD000EB01142F442369F0FB012FEF240F30E0BA
:101AE0002F5F3F4F260F371F9FEF9193E217F307AA
:101AF000E1F72D988F71D5D0082F412FBE0180E0DE
:101B000090E0A5D02D9A802FDF91CF911F910F915A
:101B10000895CF93DF931F92CDB7DEB741E0BE01AA
:101B20006F5F7F4F80E0D0DF898180FD10C08160D2
:101B3000898341E0BE016F5F7F4F80E0B0DF85E1C8
:101B40008A95F1F700C085E18A95F1F700C00F9002
:101B5000DF91CF91089580910A02882329F045E012
:101B600065E072E08AE09BCF08951F920F920FB656
:101B70000F9211240BB60F922F933F934F935F93C5
:101B80006F937F938F939F93AF93BF93EF93FF9345
:101B9000CF93DF931F92CDB7DEB72C987BDF89837D
:101BA00086FF04C08E7086950E946601898185FF3C
:101BB0001BC010922115CFDFACDF80910302909102
:101BC0000402880F991F909304028093030280916E
:101BD00003029091040281609093040280930302B7
:101BE00081E08093020214C084FF12C081EE59D0BC
:101BF00010922115B0DF8DDF8091030290910402D5
:101C0000880F991F9093040280930302109202029E
:101C100080E7898341E0BE016F5F7F4F87E03FDF50
:101C20002C9A0F90DF91CF91FF91EF91BF91AF91DF
:101C30009F918F917F916F915F914F913F912F91E4
:101C40000F900BBE0F900FBE0F901F90189544235E
:101C5000A1F0FC01A62FB72F4150242F30E02F5FB9
:101C60003F4F280F391F91919EBD0DB407FEFDCF48
:101C70009EB59D93E217F307B1F70895662381F0AF
:101C8000FC016150262F30E02F5F3F4F280F391F96
:101C900091919EBD0DB407FEFDCFE217F307C1F78A
:101CA00008958EBD0DB407FEFDCF8EB508953D9A03
:101CB00045982FEF39E688E1215030408040E1F728
:101CC00000C00000459A9FEF27EA31E6915020407E
:101CD0003040E1F700C0000083E045989FEF20E727
:101CE00032E0915020403040E1F700C00000459ABA
:101CF0009FEF20E732E0915020403040E1F700C0F4
:101D00000000815051F745D060E070E080E861D07C
:101D10008FEF99EF20E0815090402040E1F700C024
:101D200000003FEF81EE94E0315080409040E1F7B9
:101D300000C0000060E070E082E84BD02FEF39EF88
:101D400080E0215030408040E1F700C0000008955D
:101D50000F931F93CF93DF93182F092FC62FD72FE1
:101D600060E070E089E835D060E070E0802F31D02D
:101D700060E070E0812F2DD060E070E08D2F29D0E1
:101D800060E070E08C2F25D0DF91CF911F910F91F3
:101D9000089522E02093C00098E99093C10086E066
:101DA0008093C2002093C8009093C9008093CA001A
:101DB0008FEC90E09093CD008093CC0087E690E08C
:101DC0009093C5008093C400109268141092671419
:101DD0000895672B41F0E8ECF0E0908195FFFDCF8E
:101DE0008093CE000895E0ECF0E0908195FFFDCF68
:101DF0008093C60008958032910564F4672B29F022
:101E0000FC01E759FB4E80810895FC01E757FB4E2A
:101E10008081089580E00895019719F480916714F6
:101E20000895809168140895019719F41092671429
:101E300008951092681408951F920F920FB60F9292
:101E400011240BB60F928F939F93EF93FF93E0ECC7
:101E5000F0E080818823ECF7E0916814F0E0809155
:101E6000C600E757FB4E80838091681490E001968E
:101E70008F719078992324F40197806E9F6F01965B
:101E800080936814FF91EF919F918F910F900BBEFB
:101E90000F900FBE0F901F9018951F920F920FB6C4
:101EA0000F9211240BB60F928F939F93EF93FF9392
:101EB000E8ECF0E080818823ECF7E0916714F0E033
:101EC0008091CE00E759FB4E80838091671490E0AB
:101ED00001968F719078992324F40197806E9F6FFB
:101EE000019680936714FF91EF919F918F910F90CE
:101EF0000BBE0F900FBE0F901F90189504D06894E2
:101F0000B1118DC0089570D088F09F5790F0B92F0F
:101F10009927B751A0F0D1F0660F771F881F991F3E
:101F20001AF0BA95C9F712C0B13081F077D0B1E09C
:101F3000089574C0672F782F8827B85F39F0B93FAC
:101F4000CCF3869577956795B395D9F73EF4909540
:101F50008095709561957F4F8F4F9F4F0895E894BE
:101F600009C097FB3EF490958095709561957F4FE1
:101F70008F4F9F4F9923A9F0F92F96E9BB2793958F
:101F8000F695879577956795B795F111F8CFFAF49F
:101F9000BB0F11F460FF1BC06F5F7F4F8F4F9F4FD0
:101FA00016C0882311F096E911C0772321F09EE82E
:101FB000872F762F05C0662371F096E8862F70E094
:101FC00060E02AF09A95660F771F881FDAF7880F6E
:101FD0009695879597F9089557FD9058440F551F8A
:101FE00059F05F3F71F04795880F97FB991F61F09B
:101FF0009F3F79F087950895121613061406551F12
:10200000F2CF4695F1DF08C0161617061806991F7D
:10201000F1CF86957105610508940895E894BB2772
:1020200066277727CB0197F908950BD078C069D040
:1020300028F06ED018F0952309F05AC05FC0112423
:10204000EECFCADFA0F3959FD1F3950F50E0551F57
:10205000629FF001729FBB27F00DB11D639FAA27FD
:10206000F00DB11DAA1F649F6627B00DA11D661F4C
:10207000829F2227B00DA11D621F739FB00DA11D6D
:10208000621F839FA00D611D221F749F3327A00D27
:10209000611D231F849F600D211D822F762F6A2FC3
:1020A00011249F5750408AF0E1F088234AF0EE0F48
:1020B000FF1FBB1F661F771F881F91505040A9F755
:1020C0009E3F510570F014C0AACF5F3FECF3983EDD
:1020D000DCF3869577956795B795F795E7959F5FBC
:1020E000C1F7FE2B880F911D9695879597F9089556
:1020F00097F99F6780E870E060E008959FEF80ECBB
:10210000089500240A94161617061806090608955D
:1021100000240A9412161306140605060895092EC3
:102120000394000C11F4882352F0BB0F40F4BF2B32
:1021300011F460FF04C06F5F7F4F8F4F9F4F089572
:10214000AA1BBB1B51E107C0AA1FBB1FA617B707DD
:1021500010F0A61BB70B881F991F5A95A9F78095F9
:102160009095BC01CD01089597FB072E16F40094BD
:1021700006D077FD08D0E4DF07FC05D03EF490954B
:1021800081959F4F0895709561957F4F0895EE0F4B
:10219000FF1F881F8BBF0790F691E02D1994F894CC
:0221A000FFCF6F
:1021A200008001FF00E7E7E7E7E7202000000000EA
:00000001FF
