S00E0000726F6F6D62612E7372656396
S11300007EC000009DC000009BC0000099C000009D
S113001097C0000095C0000093C0000091C000008C
S11300208FC000008DC000008BC0000089C000009C
S113003087C0000085C0000083C0000081C00000AC
S11300407FC000000C94860A7BC0000079C00000C9
S113005077C0000075C0000073C0000071C00000CC
S11300606FC000000C94CB0D6BC0000069C0000091
S113007067C0000065C0000063C0000061C00000EC
S11300800C945D0B5DC000005BC0000059C0000013
S11300900C94FC0D55C0000053C0000051C000007A
S11300A04FC000004DC000004BC0000049C000001C
S11300B047C0000045C0000043C0000041C000002C
S11300C03FC000003DC000003BC0000039C000003C
S11300D037C0000035C0000033C0000031C000004C
S11300E02FC00000610647066106700615077F06EB
S11300F0380668079D073F0841087708E20811247D
S11301001FBECFEFD1E2DEBFCDBF00E00CBF12E0D7
S1130110A0E0B2E0E8E2F2E200E00BBF02C0079028
S11301200D92AE32B107D9F725E1AEE2B2E001C0DB
S11301301D92A835B207E1F70E94740B0C941211BA
S11301405FCF0F921F922F923F924F925F926F92C6
S11301507F928F929F92AF92BF92CF92DF92EF9253
S1130160FF920F931F932F933F934F935F936F933C
S11301707F938F939F93AF93BF93CF93DF93EF932B
S1130180FF930FB70F93FCB7FF93EDB7FEB7E09360
S11301905615F0935715E0913415F0913515EDBFD0
S11301A0FEBFFF91FCBF0F910FBFFF91EF91DF9155
S11301B0CF91BF91AF919F918F917F916F915F91FB
S11301C04F913F912F911F910F91FF90EF90DF90EE
S11301D0CF90BF90AF909F908F907F906F905F90E3
S11301E04F903F902F901F900F9018950F921F9251
S11301F02F923F924F925F926F927F928F929F9233
S1130200AF92BF92CF92DF92EF92FF920F931F9320
S11302102F933F934F935F936F937F938F939F930A
S1130220AF93BF93CF93DF93EF93FF930FB70F93E6
S1130230FCB7FF93EDB7FEB7E0933415F093351593
S1130240E0915615F0915715EDBFFEBFFF91FCBF2D
S11302500F910FBFFF91EF91DF91CF91BF91AF91BC
S11302609F918F917F916F915F914F913F912F91CA
S11302701F910F91FF90EF90DF90CF90BF90AF90C0
S11302809F908F907F906F905F904F903F902F90B2
S11302901F900F90089580E480937C0087E88093FA
S11302A07A000895ECE7F0E090818770987F892BBD
S11302B08083EAE7F0E0808180648083808186FD2A
S11302C0FDCF80917800909179000895E2E0F1E00B
S11302D090819F7E908388231CF490819061908309
S11302E0E2E0F1E09081977F908386FF03C09081E4
S11302F098609083739885FD739AA59884FDA59A58
S1130300E2E0F1E080818064808385E08A95F1F702
S1130310000080818F7B80830895CF93C82FE2E013
S1130320F1E080818F7D80838C2FD0DF8C2F8295AC
S1130330807FCCDF87EC90E00197F1F700C00000EC
S1130340C43018F0C03850F007C08FE39FE1019724
S1130350F1F700C00000C0E8C0930002CF910895F7
S1130360CF93C82FE2E0F1E08081806280838C2FFC
S1130370ADDF8C2F8295807FA9DF87EC90E0019719
S1130380F1F700C00000809100028F5F80930002AB
S1130390803921F0803D21F480E801C080ECBDDF8C
S11303A0CF910895CF93DF93EC018881882329F0BE
S11303B02196D6DF89918111FCCFDF91CF910895E9
S11303C09D9A6B9AE1E0F1E080818860808380816E
S11303D08061808380818062808380818064808367
S11303E0E2E0F1E080818F7B808380818F7D808358
S11303F08FE59AEE0197F1F700C0000080E366DF15
S11304008FE090E40197F1F700C0000080E35EDF25
S11304108FE891E00197F1F700C0000080E356DF18
S113042087EC90E00197F1F700C0000080E24EDF16
S113043087EC90E00197F1F700C0000088E26DDFDF
S113044088E06BDF81E069DF86E067DF8CE065CF01
S11304500895FFCF0F2EF6E62F2EF02D0F2EFFE678
S11304603F2EF02D0F2EF9E06F2EF2E07F2EF02DAF
S1130470C3EDD4E10F2EF2E0AF2EF2E0BF2EF02D4B
S11304800F2EF0E18F2EF2E09F2EF02D0F2EF5E2CD
S1130490CF2EF2E0DF2EF02D0DED14E10F2EFEE154
S11304A0EF2EF2E0FF2EF02D83E0FCDE582E492ED5
S11304B087E0F8DE9093D2148093D11485E0F2DEC5
S11304C09093C6148093C51489B180788093C41422
S11304D088231CF03092010202C020920102809114
S11304E0D1149091D2148D3B22E0920788F0809130
S11304F001021F928F93BF92AF92DF93CF930E941A
S1130500490E0F900F900F900F900F900F9013C003
S11305108C32914080F4809101021F928F937F92DC
S11305206F92DF93CF930E94490E0F900F900F901C
S11305300F900F900F908091C5149091C6148D3B2D
S1130540A2E09A0788F0809101021F928F939F92F4
S11305508F92DF93CF930E94490E0F900F900F90CC
S11305600F900F900F9015C08C32914090F48091B1
S113057001021F928F93A7E1B2E0BF93AF93DF9381
S1130580CF930E94490E0F900F900F900F900F90F1
S11305900F9080E8C2DE4F925F92DF92CF921F935A
S11305A00F930E94490EC801FDDE80ECB6DECE0139
S11305B0F9DE61E070E0CE010E94B70D8091010286
S11305C01F928F93FF92EF92DF93CF930E94490E75
S11305D02FEF89EF90E0215080409040E1F700C078
S11305E00000ADB7BEB71C960FB6F894BEBF0FBEE1
S11305F0ADBF5ACF6F985F9A0895FCDFE4D690930D
S1130600CE148093CD14DFD69093EF148093EE1420
S1130610F5D69093F3148093F214F0D69093DA14F1
S11306208093D91480E00E945F0D35DEC9DE24C0BA
S1130630089541E050E060E070E08DEF92E0F9D67B
S11306409093F1148093F01441E050E061E070E085
S11306508AE292E0EED69093CC148093CB1441E0DE
S113066050E068E070E089E292E0E3D69093CA1427
S11306708093C91401C0089580913E0290913F0275
S1130680892B51F0F894E0914002F0914102E35F2C
S1130690FE4F84E08083AACD0895EF92FF920F93DA
S11306A01F93CF93DF931F921F92CDB7DEB79A8328
S11306B08983DC017C0104E0E00EF11C80E091E020
S11306C0F7018C01119201501040E1F7FD01ED5F3B
S11306D0FE4F8CE393E0808331979083319760835E
S11306E0319770833197108290E092939F5F92329A
S11306F0E1F7A452BF4FE981FA81B383A283DF01FA
S1130700A55FBE4F11967C936E9312961C928091B6
S11307103A0290913B029183808389819A81FC0102
S1130720EB5FFE4F51834083329651834083329670
S113073031832083719611821082349723E630E04E
S11307403183208320913C0230913D022F5F3F4F43
S113075030933D0220933C0220913A0230913B02B7
S11307602F5F3F4F30933B0220933A02729781E010
S1130770808342E352E064E175E1CE0101960E9478
S1130780200CE981FA81808191810F900F90DF9193
S1130790CF911F910F91FF90EF900895CF93DF9326
S11307A0EC0180913C0290913D02409721F18091AF
S11307B0A603882371F0A4ECB4E0E1E0F0E09C919E
S11307C0992349F03196A25EBE4FE031F105B9F7A5
S11307D002C0E0E0F0E09A01AB01BE01AEE1B1E09D
S11307E0EA9FC001EB9F900DFA9F900D11248E5546
S11307F09D4F53DF00C0DF91CF910895FC0180919C
S11308003802909139029183808381E082838091C0
S113081038029091390201969093390280933802FC
S1130820808191810895FC01809136029091370274
S11308309183808381E082831482138280913602C3
S1130840909137020196909337028093360280810B
S113085091810895CF93DF9310923D0210923C0250
S113086010923F0210923E02109239021092380206
S1130870109237021092360210923B0210923A0202
S1130880E2EAF2E0A6EAB3E042E854E12EE131E024
S113089083E690E0EF01B901199261507040E1F7ED
S11308A01C9253969C938E93529711821082E25E0F
S11308B0FE4FA25EBE4FE417F50761F7ECE6F2E0E7
S11308C024EA32E087E0DF011297ED01682F1992E4
S11308D06A95E9F710823796E217F307A1F7E4E483
S11308E0F2E02CE632E085E0DF011297ED01682F9B
S11308F019926A95E9F710823596E217F307A1F782
S1130900DF91CF91089581E090E00E94121162E39B
S113091072E084E195E10E94EB0CFC0190934102AA
S113092080934002892B09F4EEDF828193819093B6
S113093035158093341582E0DF01AC5FBE4F8C9394
S113094080819181029730F080819181029711F02A
S11309508081918108950F931F93CF93DF931F920A
S11309601F92CDB7DEB7A0914002B0914102FD01C4
S1130970EC5EFE4F40815181EAE6F2E000E010E0D7
S1130980808191818417950739F00F5F1F4F379647
S113099008301105A9F7EBC08D919C91119727E0C0
S11309A0209FF001219FF00D1124E659FD4F238172
S11309B034812817390709F0DAC0AC5FBE4F8C9137
S11309C0863009F04DC06EE272E086E395E19BD774
S11309D09A838983009779F487E0809FF001819F4F
S11309E0F00D1124E659FD4F1682158281E08283B1
S11309F014821382BCC027E0209FF001219FF00DD8
S1130A001124E659FD4F21E030E036832583DC01D3
S1130A102D913C91348323832091400230914102F3
S1130A20D901A95FBE4F4D915C911197FC01E95F1B
S1130A30FE4F51834083339781E08083F901EB5F5C
S1130A40FE4F4081518111965C934E933197808380
S1130A5042E352E064E175E1CE010196F1D687C02C
S1130A6087E0809FF001819FF00D1124E659FD4F2E
S1130A70858196818230910560F027E0209FF00106
S1130A80219FF00D1124E659FD4F0197968385832C
S1130A906EC06EE272E086E395E135D79A8389836E
S1130AA0009749F587E0809FF001819FF00D1124A4
S1130AB0E659FD4F81E082831682158214821382E7
S1130AC0E0914002F0914102DF01AB5FBE4F8D9196
S1130AD09C911197129611969C938E93808191818B
S1130AE0029708F444C080819181029709F43FC0C1
S1130AF0808191813CC027E0209FF001219FF00D6F
S1130B001124E659FD4F21E030E036832583DC01D2
S1130B102D913C91348323832091400230914102F2
S1130B20D901A95FBE4F4D915C911197FC01E95F1A
S1130B30FE4F51834083339781E08083F901EB5F5B
S1130B40FE4F4081518111965C934E93319780837F
S1130B5042E352E064E175E1CE01019671D642E3CD
S1130B6052E064E175E180E492E06AD6D0DE0F9051
S1130B700F90DF91CF911F910F9108952F923F9283
S1130B804F925F926F927F928F929F92AF92BF9299
S1130B90CF92DF92EF92FF920F931F93CF93DF9345
S1130BA000D01F92CDB7DEB780913E0290913F02F4
S1130BB0892B09F0F1C380913C0290913D02892B6D
S1130BC009F4EAC3F89481E090E090933F028093A3
S1130BD03E029DDE0F2EF2E4EF2EF2E0FF2EF02D0A
S1130BE00F2EFEE1AF2EBB24B394F02D0F2EF3E6AF
S1130BF02F2E312CF02D88248394912C0F2EFAE67D
S1130C00CF2EF2E0DF2EF02D02EA12E00F2EFAE0F2
S1130C106F2E712CF02DE0914002F0914102DF0122
S1130C20A35FBE4F1C92828193819093351580936C
S1130C30341587DA80914002909141029C838B8322
S1130C408091341590913515AB81BC8113969C939A
S1130C508E931297FD01E35FFE4FE081F0E0ED30EB
S1130C60F105C8F68827EE58FF4F8F4F0C94410EBC
S1130C70EB81FC81E45EFE4F80819181E2EAF2E047
S1130C80208131812817390709F089C001C3EB811C
S1130C90FC81E75FFE4F40815181EB81FC81EB5F7A
S1130CA0FE4F60817181EB81FC81E55FFE4F8081A5
S1130CB0918174DDEB81FC81E25FFE4F918380833F
S1130CC0AACFEB81FC81EC5FFE4F81E0808342E39D
S1130CD052E064E175E180E492E0B2D518DE9BCF86
S1130CE0EB81FC81EC5FFE4F83E0808340E352E0C4
S1130CF064EF74E180E492E032D509DE8CCFAB81FD
S1130D00BC812D913C911197FD01E45EFE4F8081E1
S1130D1091812817390751F080819181E2EAF2E04C
S1130D20208131812817390741F4A1C2EB81FC816C
S1130D30E65EFE4F918280821AC0E0ECF3E0C401CB
S1130D40AB81BC81A45EBE4F6B817C812D913C91B3
S1130D501197408151814217530709F48BC20196C0
S1130D60E25EFE4F8031910589F77C836B83EB81D2
S1130D70FC81E65EFE4F80819181892B09F44BCF83
S1130D80EB81FC81EC5FFE4F81E0808342E352E023
S1130D9064E175E180E492E053D5B9DD3CCFE0EC49
S1130DA0F3E0C401AB81BC81A45EBE4F6B817C8146
S1130DB02D913C911197408151814217530709F4B9
S1130DC06AC20196E25EFE4F8031910589F723CF16
S1130DD08A9D90018B9D300D9A9D300D1124C9017F
S1130DE08E559D4FFC01E65EFE4F11821082EB8111
S1130DF0FC81E95FFE4F20813181FC01E95FFE4FF8
S1130E00808191818217930708F005CFEB81FC81E3
S1130E10EC5FFE4F81E0808342E352E064E175E1E0
S1130E2080E492E00DD573DDF6CEEB81FC81E95FC1
S1130E30FE4F11821082EB81FC81EB5FFE4F118229
S1130E401082EB81FC81EC5FFE4F86E08083DC82C4
S1130E50CB82E0914002F091410280819181AB818B
S1130E60BC8113962D913C9114972817390739F4B6
S1130E708D919C91EC5EFE4F918380836CDDEB81C0
S1130E80FC813796FC83EB83E017F10711F7E091BF
S1130E904002F0914102DF01AC5FBE4F1C925296BA
S1130EA011963C922E921F9711967C926E921297F5
S1130EB011967C926E921182108280913C029091E4
S1130EC03D02019790933D0280933C0220DDA3CE26
S1130ED08091380290913902089741F1D601129617
S1130EE08C91882389F0E3E7F2E094014B815C81E3
S1130EF08081882361F02F5F3F4F3796283031057A
S1130F00B9F75C834B8305C020E030E002C05C830A
S1130F104B83C901880F991F880F991F880F991F48
S1130F20821B930B86599D4F69DC2C01EB81FC815C
S1130F30E25FFE4F518240826ECEEB81FC81EC5E1B
S1130F40FE4F40815181F6018081918148175907F4
S1130F5009F4B3C1C4016B817C81278130854217B8
S1130F60530709F4ADC10196379688309105A9F766
S1130F7052CEFC01EE0FFF1FEE0FFF1FEE0FFF1FFF
S1130F80E81BF90BE659FD4F82E08283AB81BC81FB
S1130F908D919C9194838383858196810196968318
S1130FA0858339CEFC01EE0FFF1FEE0FFF1FEE0FFE
S1130FB0FF1FE81BF90BE659FD4F23813481EB81B8
S1130FC0FC81408151812417350789F4FC01EE0F1F
S1130FD0FF1FEE0FFF1FEE0FFF1FE81BF90BE65973
S1130FE0FD4F8581968101969683858314CEE2EA2E
S1130FF0F2E080E090E06B817C8140815181241794
S1131000350719F42115310531F40196E25EFE4FDE
S11310108031910591F77C836B83FB01E95FFE4F7F
S1131020208131818A9DF0018B9DF00D9A9DF00DF8
S11310301124E755FC4F408151812417350780F472
S1131040FB01E95FFE4F208131818A9DF0018B9D78
S1131050F00D9A9DF00D1124E755FC4F3183208348
S1131060EB81FC81EC5FFE4F84E080834EE252E032
S113107066E375E180E492E042D349DCCCCD6BDCDD
S1131080CACD8091360290913702089731F1D70189
S113109012968C91882381F0E9E4F2E0C4014B813B
S11310A05C812081222359F0019635968830910580
S11310B0C1F75C834B8305C080E090E002C05C8391
S11310C04B839C01220F331F220F331F820F931F68
S11310D08E5B9D4FA8DB9A838983AB81BC81A25F21
S11310E0BE4FE981FA811196FC93EE9394CDEB8186
S11310F0FC81E85EFE4F40815181D7018D919C9126
S11311004817590709F4EEC0F701C4016B817C81CB
S1131110258136814217530709F4E7C001963596B5
S113112088309105A9F73DC0FC01EE0FFF1FEE0FBB
S1131130FF1FE80FF91FEE5BFD4F2281223069F497
S1131140FC01EE0FFF1FEE0FFF1F8E0F9F1FFC0110
S1131150EE5BFD4F81E0828324C0EB81FC81EA5E7B
S1131160FE4F51834083EB81FC8120813181FC015E
S1131170EE0FFF1FEE0FFF1F8E0F9F1FFC01EE5B94
S1131180FD4F34832383EB81FC81EC5FFE4F85E0CC
S1131190808342E352E064E175E180E492E050D35D
S11311A0B6DBE0914002F091410280819181029787
S11311B008F431CD80819181029709F42CCD80818E
S11311C0918129CDEB81FC81E85EFE4F4081518104
S11311D0D7018D919C914817590709F497C0F701DD
S11311E0C4016B817C81258136814217530709F440
S11311F090C00196359688309105A9F70CCD808171
S113120091814817590709F497C02F5F3F4FE25E59
S1131210FE4F2031310599F7CB01FB01EE0FFF1F83
S1131220EE0FFF1F8E0F9F1FFC01EE5BFD4F82E050
S11312308283F1CC2A9DF0012B9DF00D3A9DF00D97
S11312401124E454FC4F80819181892B09F0E3CC73
S1131250EB81FC81EC5FFE4F81E0808342E352E04E
S113126064E175E180E492E0EBD251DBD4CC80E020
S113127090E002C07C836B838A9DF0018B9DF00D0E
S11312809A9DF00D1124E454FC4F918280826FCD1D
S113129080E090E002C07C836B838A9DF0018B9D8B
S11312A0F00D9A9DF00D1124E454FC4F20813181FE
S11312B02130310509F0AFCC8BCD80E090E002C045
S11312C07C836B83FC01EE0FFF1FEE0FFF1FEE0FFD
S11312D0FF1FE81BF90BE659FD4F2281213009F06D
S11312E061CE47CE80E090E002C07C836B83FC013A
S11312F0EE0FFF1FEE0FFF1FE80FF91FEE5BFD4F10
S113130023813481232B09F04CCF0ECF80E090E071
S113131002C07C836B83E8EBF3E0208131814217C8
S1131320530739F0E6EDF4E09401AB81BC81BC01D4
S113133066CF20E030E003C0BC83AB83CB012A9DA1
S1131340A0012B9D500D3A9D500D11244E555D4F1B
S1131350FA01EC5FFE4F61E0608372963182208275
S1131360FC01EE0FFF1FEE0FFF1F8E0F9F1FFC01EE
S1131370EE5BFD4F14821382EB81FC81E95FFE4F2B
S113138080819181FA01E95FFE4F408151814817C4
S1131390590708F44FCF3FCC0F900F900F900F9048
S11313A0DF91CF911F910F91FF90EF90DF90CF903D
S11313B0BF90AF909F908F907F906F905F904F9071
S11313C03F902F90089580913E0290913F02892B87
S11313D0A1F0F894E0914002F0914102E35FFE4FE6
S11313E087E080830E94F600E0914002F091410280
S11313F0E25FFE4F808191810895089580913E02BD
S113140090913F02892BA1F0F894E0914002F09171
S11314104102E35FFE4F8AE080830E94F600E09180
S11314204002F0914102E25FFE4F80819181089574
S1131430089520913E0230913F02232BF1F0F8945D
S11314402091400230914102F901E35FFE4FA1E097
S1131450A083329791838083369771836083349617
S1131460518340830E94F600E0914002F0914102D2
S1131470E25FFE4F80819181089590C90895809123
S11314803E0290913F02892B59F0F894E09140027A
S1131490F0914102E35FFE4F82E080830C94F600FA
S11314A00895F89410928000E1E8F0E01082109220
S11314B085001092840080E792E0909389008093E5
S11314C08800808188608083808184608083EFE6E7
S11314D0F0E080818260808310929000E1E9F0E086
S11314E01082109295001092940083E294EF9093EE
S11314F099008093980080818860808380818460D3
S1131500808382E080937100789408951F920F92F3
S11315100FB60F9211240BB60F92DF92EF92FF9247
S11315200F931F932F933F934F935F936F937F93E7
S11315308F939F93AF93BF93EF93FF93CF93DF93D7
S113154000D01F92CDB7DEB7809130029091310266
S113155001979A83898389819A8199230CF48FC096
S1131560E981FA81EE0FFF1FEC50FB4E0190F081F0
S1131570E02DE05FFE4F2081318180913402909113
S113158035028217930708F47AC0E981FA81EE0FD5
S1131590FF1FEC50FB4E0190F081E02DEE5EFE4FFC
S11315A020813181809194009091950061E772E0EF
S11315B054D36217730760F562C0E981FA81EE0FB4
S11315C0FF1FEC50FB4E0190F081E02DE05FFE4FD9
S11315D020813181809134029091350282179307E2
S11315E008F44DC0E981FA81EE0FFF1FEC50FB4E69
S11315F00190F081E02DEE5EFE4F20813181F701F4
S113160080819181B80129D36217730750F437C0E0
S1131610DD24D3940F2EF4E9EF2EF12CF02D01E705
S113162012E060E372E084EF94E12DD29C838B831B
S1131630FC01EC5FFE4FD08242E352E064E175E1CD
S1131640CE010396FDD0EB81FC81E95FFE4F208142
S11316503181E0914002F0914102E95FFE4F8081C7
S113166091812817390708F40ADF89819A81019743
S11316709A83898389819A8199230CF09ECF0F9054
S11316800F900F900F90DF91CF91FF91EF91BF9149
S1131690AF919F918F917F916F915F914F913F9106
S11316A02F911F910F91FF90EF90DF900F900BBE41
S11316B00F900FBE0F901F9018951F920F920FB6A8
S11316C00F9211248F939F9380913402909135024D
S11316D0019690933502809334029F918F910F90DD
S11316E00FBE0F901F901895DCDEB4D841E050E097
S11316F061E070E089E193E09CDE40CA0895CF93F5
S1131700DF93EA01288139812F30310529F1E881FD
S1131710F9819F012150310972F0EE0FFF1FE60F8E
S1131720F71FDB013291229133832283EA17FB07EF
S1131730C9F72FEF3FEFFC01808191812F5F3F4F6D
S1131740220F331FFB01E20FF31F918380838881F3
S11317509981019699838883DF91CF910895CF92DF
S1131760DF92EF92FF920F931F93CF93DF93EA01DF
S1131770288139812F30310509F459C0A881B981F4
S11317801197FC01C080D180FD01EE0FFF1FEB011A
S1131790CE0FDF1F28813981BB23CCF1FE017601F6
S11317A0C0EFEC1ACEEFFC0ADEEECD1ADEEFDD0A56
S11317B00BC020813181338322831197329122918E
S11317C0AF3FCFEFBC0719F1E70108811981E901A7
S11317D0C05FDE4F0990D881C02DC017D10748F3F0
S11317E0E70108811981E901C05FDE4F0990D881C2
S11317F0C02D0C171D0758F0E601088119812E5ED3
S11318003E4FE901288139810217130790F6FC0144
S1131810808191811196AA0FBB1FA60FB71F8D93CC
S11318209C93EA0188819981019699838883DF9149
S1131830CF911F910F91FF90EF90DF90CF9008957B
S1131840CF92DF92EF92FF920F931F93CF93DF9388
S11318506A01EA01288139812F30310509F44AC02F
S11318602881398121503109FC0100811181F9015C
S1131870EE0FFF1FDB01AE0FBF1F4D915C913323B1
S11318803CF1D801A95FBE4FED90FC90DA01A95F4D
S1131890BE4F4D915C91E416F506D0F0E60FF71FAC
S11318A0095F1E4FA081B181B383A2832150310906
S11318B0B291A2912F3F4FEF340751F0E801E88035
S11318C0F980A95FBE4F4D915C91E416F50650F77F
S11318D0FC01808191812F5F3F4F220F331FFB0159
S11318E0E20FF31F91838083E60188819981019639
S11318F099838883DF91CF911F910F91FF90EF908F
S1131900DF90CF9008950F931F93CF93DF93EB0154
S113191028813981232B09F454C02881398121502D
S113192031090AF451C0E901CC0FDD1FFC01EC0FB1
S1131930FD1FA081B181FD01EC5EFE4F0190F0819D
S1131940E02DE417F50781F40AC0BA91AA91FD01CC
S1131950EC5EFE4F008111810417150739F41097CE
S113196059F480E090E032C0C80FD91F21503109EA
S113197060F780E090E02AC0EB0148815981415032
S1131980510924173507A4F4A901440F551FFC017C
S1131990E40FF51F82819381819391932F5F3F4FD1
S11319A0EB0148815981415051092417350794F3BB
S11319B0FB01808191810197918380838A2F9B2FE2
S11319C005C080E090E002C080E090E0DF91CF911C
S11319D01F910F910895CF93DF93EB0128813981F3
S11319E0232B09F448C0E881F9819F012150310972
S11319F00AF444C0EE0FFF1FE80FF91F5291429101
S1131A00DA01A65EBE4F6D917C911197672B59F454
S1131A1056976C91613039F4F9014115510549F437
S1131A2080E090E02DC02150310940F780E090E043
S1131A3027C06881798161507109261737079CF4A2
S1131A40EE0FFF1FDC01AE0FBF1F12968D919C910C
S1131A5013978D939D932F5F3F4FE881F9813197C1
S1131A602E173F0794F3888199810197998388837E
S1131A70842F952F05C080E090E002C080E090E0C4
S1131A80DF91CF910895DB012D913C911197232B88
S1131A90A9F02D913C911197F901E150F048EE0F16
S1131AA0FF1FE80FF91F808191812D913C911197BF
S1131AB02150310911963C932E9308950895E4E63C
S1131AC0F0E090819D7F908332E03093C00028E95C
S1131AD02093C10096E09093C2003093C8002093F5
S1131AE0C9009093CA0027E630E03093C5002093E4
S1131AF0C4002FEC30E03093CD002093CC00813033
S1131B0059F018F0823079F015C087E690E0909390
S1131B10C5008093C40014C083E390E09093C50093
S1131B208093C4000DC082E290E09093C50080933E
S1131B30C40006C087E690E09093C5008093C4007B
S1131B4010928314109282140895672B41F0E8ECEC
S1131B50F0E0908195FFFDCF8093CE000895E0ECF6
S1131B60F0E0908195FFFDCF8093C60008950F9318
S1131B701F93CF93DF93EC018881882339F08B0185
S1131B802196B801E2DF89918111FBCFDF91CF91DA
S1131B901F910F9108951F920F920FB60F92112467
S1131BA00BB60F928F939F93EF93FF93E0ECF0E0CB
S1131BB080818823ECF7E0918314F0E08091C600E3
S1131BC0EC55FB4E80838091831490E001968F71D5
S1131BD09078992324F40197806E9F6F01968093E7
S1131BE08314FF91EF919F918F910F900BBE0F90F3
S1131BF00FBE0F901F9018951F920F920FB60F9261
S1131C0011240BB60F928F939F93EF93FF93E8ECFD
S1131C10F0E080818823ECF7E0918214F0E0809179
S1131C20CE00EC57FB4E80838091821490E00196A5
S1131C308F719078992324F40197806E9F6F019699
S1131C4080938214FF91EF919F918F910F900BBE1F
S1131C500F900FBE0F901F901895AA1BBB1B51E14C
S1131C6007C0AA1FBB1FA617B70710F0A61BB70B08
S1131C70881F991F5A95A9F780959095BC01CD01AD
S1131C800895EE0FFF1F881F8BBF0790F691E02D7C
S1131C9019940F931F93CF93DF93CDB7DEB72E978D
S1131CA00FB6F894DEBF0FBECDBF0E891F8986E044
S1131CB08C831A8309838FEF9FE79E838D83AE0104
S1131CC0465E5F4F688D798DCE01019611D02F81CC
S1131CD03885F801E20FF31F10822E960FB6F894A0
S1131CE0DEBF0FBECDBFDF91CF911F910F9108953D
S1131CF02F923F924F925F926F927F928F929F9218
S1131D00AF92BF92CF92DF92EF92FF920F931F9305
S1131D10CF93DF93CDB7DEB72C970FB6F894DEBF21
S1131D200FBECDBF7C016B018A01FC0117821682B4
S1131D30838181FFB0C1CE0101964C01F7019381EB
S1131D40F60193FD859193FF81916F01882309F436
S1131D509EC1853239F493FD859193FF81916F0182
S1131D60853221F4B70190E0C7D1E8CF512C312C52
S1131D7020E02032A0F48B3269F030F4803259F044
S1131D80833269F420612CC08D3239F0803339F408
S1131D90216026C02260246023C0286021C027FD62
S1131DA027C030ED380F3A3078F426FF06C0FAE049
S1131DB05F9E300D1124532E13C08AE0389E300DDF
S1131DC01124332E20620CC08E3221F426FD5FC113
S1131DD0206406C08C3611F4206802C0883641F4B1
S1131DE0F60193FD859193FF81916F018111C1CF1C
S1131DF0982F9F7D9554933028F40C5F1F4FFFE379
S1131E00F9830DC0833631F0833771F0833509F0DF
S1131E1057C021C0F801808189830E5F1F4F44247D
S1131E204394512C540114C03801F2E06F0E711C1C
S1131E30F801A080B18026FF03C0652D70E002C0C8
S1131E406FEF7FEFC5012C874CD12C0183012C85CA
S1131E502F77222E16C03801F2E06F0E711CF801A4
S1131E60A080B18026FF03C0652D70E002C06FEF33
S1131E707FEFC5012C872AD12C012C852068222EC6
S1131E80830123FC19C0832D90E048165906A0F461
S1131E90B70180E290E030D13A94F5CFF50127FC08
S1131EA0859127FE81915F01B70190E025D1311022
S1131EB03A94F1E04F1A51084114510479F7DEC005
S1131EC0843611F0893631F5F80127FF07C06081A7
S1131ED07181828193810C5F1F4F08C06081718181
S1131EE0072E000C880B990B0E5F1F4F2F76722E56
S1131EF097FF09C090958095709561957F4F8F4F9E
S1131F009F4F2068722E2AE030E0A4012DD1A82E24
S1131F10A81843C0853729F42F7EB22E2AE030E07A
S1131F2025C0F22FF97FBF2E8F36C1F018F4883503
S1131F3079F0ADC0803719F0883721F0A8C02F2F71
S1131F402061B22EB4FE0DC08B2D8460B82E09C062
S1131F5024FF0AC09F2F9660B92E06C028E030E007
S1131F6005C020E130E002C020E132E0F801B7FE14
S1131F7007C060817181828193810C5F1F4F06C00D
S1131F806081718180E090E00E5F1F4FA401ECD06E
S1131F90A82EA818FB2DFF777F2E76FE0BC0372DB9
S1131FA03E7FA51450F474FE0AC072FC08C0372D9D
S1131FB03E7E05C0BA2C372D03C0BA2C01C0B52C07
S1131FC034FF0DC0FE01EA0DF11D8081803311F450
S1131FD0397E09C032FF06C0B394B39404C0832F82
S1131FE0867809F0B39433FD12C030FF06C05A2C32
S1131FF0B31418F4530C5B18B32CB31460F4B70186
S113200080E290E03C8778D0B3943C85F6CFB3145B
S113201010F43B1801C0312C34FF11C0B70180E328
S113202090E03C8769D03C8532FF16C031FD03C087
S113203088E790E002C088E590E0B7010CC0832FE8
S1132040867851F031FF02C08BE201C080E237FD97
S11320508DE2B70190E050D0A51430F4B70180E3CD
S113206090E04AD05A94F8CFAA94F401EA0DF11DF5
S11320708081B70190E040D0A110F6CF332009F45D
S11320805DCEB70180E290E037D03A94F7CFF70104
S11320908681978102C08FEF9FEF2C960FB6F8943C
S11320A0DEBF0FBECDBFDF91CF911F910F91FF9087
S11320B0EF90DF90CF90BF90AF909F908F907F90E4
S11320C06F905F904F903F902F900895FC01059082
S11320D0615070400110D8F7809590958E0F9F1F26
S11320E00895FC016150704001900110D8F780956B
S11320F090958E0F9F1F08950F931F93CF93DF9397
S1132100FB01238121FD03C08FEF9FEF28C022FF35
S113211016C046815781248135814217530744F400
S1132120A081B1819D012F5F3F4F318320838C9328
S1132130268137812F5F3F4F3783268310C0EB0101
S1132140092F182F0084F185E02D1995892BE1F6CC
S11321508E819F8101969F838E83812F902FDF91A3
S1132160CF911F910F910895FA01AA27283051F1B8
S1132170203181F1E8946F936E7F6E5F7F4F8F4FB4
S11321809F4FAF4FB1E03ED0B4E03CD0670F781F13
S1132190891F9A1FA11D680F791F8A1F911DA11DF8
S11321A06A0F711D811D911DA11D20D009F4689431
S11321B03F912AE0269F11243019305D3193DEF6D9
S11321C0CF010895462F4770405D4193B3E00FD08F
S11321D0C9F7F6CF462F4F70405D4A3318F0495D7A
S11321E031FD4052419302D0A9F7EACFB4E0A6955D
S11321F09795879577956795BA95C9F7009761057F
S1132200710508959B01AC010A2E069457954795D4
S113221037952795BA95C9F7620F731F841F951FC9
S10B2220A01D0895F894FFCFFE
S11322288066733425636500007333256365000095
S113223873312563650000733225636500007330CC
S111224825636500004144433A2532642000BA
S9030000FC
