:1000000071C000008EC000008CC000008AC00000DB
:1000100088C0000086C0000084C0000082C00000CC
:1000200080C000007EC000007CC000007AC00000DC
:1000300078C0000076C0000074C0000072C00000EC
:1000400070C000006EC000006CC000006AC00000FC
:1000500068C0000066C0000064C0000062C000000C
:1000600060C00000D0C0000007C100005AC00000FE
:1000700058C0000056C0000054C0000052C000002C
:1000800050C000004EC000004CC000004AC000003C
:1000900069C10000A0C1000044C0000042C00000CF
:1000A00040C000003EC000003CC000003AC000005C
:1000B00038C0000036C0000034C0000032C000006C
:1000C00030C000002EC000002CC000002AC000007C
:1000D00028C0000026C0000024C0000022C000008C
:1000E00020C0000011241FBECFEFD1E2DEBFCDBF84
:1000F00000E00CBF12E0A0E0B2E0EAE3F4E000E0D0
:100100000BBF02C007900D92A030B107D9F724E0D1
:10011000A0E0B2E001C01D92AA30B207E1F702D020
:100120008AC16ECF06D060E070E884E690E054D0DB
:10013000FFCF3D9A45982FEF39E688E121503040B6
:100140008040E1F700C00000459A9FEF27EA31E6C2
:10015000915020403040E1F700C0000083E0459816
:100160009FEF20E732E0915020403040E1F700C09F
:100170000000459A9FEF20E732E091502040304048
:10018000E1F700C00000815051F7A6D080E8D1D03F
:100190008FEF99EF20E0815090402040E1F700C0C0
:1001A000000081E8C6D089E0C4D03FEF81EE94E042
:1001B000315080409040E1F700C0000081E08CD0D9
:1001C00082E8B7D02FEF39EF80E0215030408040F7
:1001D000E1F700C0000008950F931F93CF93DF93C2
:1001E000182F092FC62FD72F89E8A3D0802FA1D091
:1001F000812F9FD08D2F9DD08C2F9BD0DF91CF91C1
:100200001F910F9108951F920F920FB60F92112414
:100210000BB60F922F933F934F935F938F939F93C0
:10022000EF93FF932091C0003091C6002871809118
:10023000070390E001968F7799274091060350E0DD
:100240004817590739F080930703FC01E65FFC4F1C
:10025000308301C022E020930503FF91EF919F912D
:100260008F915F914F913F912F910F900BBE0F9007
:100270000FBE0F901F9018951F920F920FB60F92FE
:1002800011240BB60F928F939F93EF93FF9390914E
:10029000090380910803981779F08091080390E092
:1002A00001968F77992780930803FC01E657FC4F4E
:1002B00080818093C60005C0E1ECF0E080818F7DF5
:1002C0008083FF91EF919F918F910F900BBE0F90C4
:1002D0000FBE0F901F9018951092090310920803FB
:1002E0001092070310920603813041F018F082301B
:1002F00049F00CC087E68093C4000BC083E3809371
:10030000C40007C082E28093C40003C087E68093E4
:10031000C4008091C5008091C40080E08093C50036
:100320001092C40088E98093C10086E08093C200E7
:1003300008954091090350E04F5F5F4F4F77552775
:100340002091080330E024173507D1F3FA01E6576E
:10035000FC4F808340930903E1ECF0E080818062F0
:10036000808308951F920F920FB60F9211240BB63F
:100370000F922F933F934F935F938F939F93EF939E
:10038000FF932091C8003091CE0028718091020225
:1003900090E001968F7799274091010250E048172D
:1003A000590739F080930202FC01EB5FFD4F308367
:1003B00001C022E020930002FF91EF919F918F9165
:1003C0005F914F913F912F910F900BBE0F900FBEF9
:1003D0000F901F9018951F920F920FB60F92112435
:1003E0000BB60F928F939F93EF93FF93909104021C
:1003F00080910302981779F08091030290E00196B2
:100400008F77992780930302FC01EB57FD4F808182
:100410008093CE0005C0E9ECF0E080818F7D808381
:10042000FF91EF919F918F910F900BBE0F900FBE98
:0A0430000F901F901895F894FFCF6D
:00000001FF
