:1000000071C000008EC000008CC000008AC00000DB
:1000100088C0000086C0000084C0000082C00000CC
:1000200080C000007EC000007CC000007AC00000DC
:1000300078C0000076C0000074C0000072C00000EC
:1000400070C000006EC000006CC000006AC00000FC
:1000500068C0000066C0000064C0000062C000000C
:1000600060C000002DC100005CC000005AC000004C
:1000700058C0000056C0000054C0000052C000002C
:1000800050C000004EC000004CC000004AC000003C
:1000900048C1000046C0000044C0000042C000004B
:1000A00040C000003EC000003CC000003AC000005C
:1000B00038C0000036C0000034C0000032C000006C
:1000C00030C000002EC000002CC000002AC000007C
:1000D00028C0000026C0000024C0000022C000008C
:1000E00020C0000011241FBECFEFD1E2DEBFCDBF84
:1000F00000E00CBF12E0A0E0B2E0E8E8F3E000E0CE
:100100000BBF02C007900D92A030B107D9F722E0D3
:10011000A0E0B2E001C01D92A234B207E1F702D024
:1001200031C16ECF0AD060E070E884E690E060D024
:1001300061E070E08CE8B2D0FBCF3D9A45982FEF9C
:1001400039E688E1215030408040E1F700C00000EE
:10015000459A9FEF27EA31E6915020403040E1F781
:1001600000C0000083E045989FEF20E732E0915007
:1001700020403040E1F700C00000459A9FEF20E7A3
:1001800032E0915020403040E1F700C00000815043
:1001900051F74FD060E070E080E880D08FEF99EFAA
:1001A00020E0815090402040E1F700C0000060E076
:1001B00070E081E873D060E070E089E06FD03FEFDD
:1001C00081EE94E0315080409040E1F700C00000A3
:1001D00081E02FD060E070E082E860D02FEF39EF4F
:1001E00080E0215030408040E1F700C000000895D9
:1001F0000F931F93CF93DF93182F092FC62FD72F5D
:1002000060E070E089E84AD060E070E0802F46D07E
:1002100060E070E0812F42D060E070E08D2F3ED032
:1002200060E070E08C2F3AD0DF91CF911F910F9159
:10023000089532E03093C00028E92093C10096E091
:100240009093C2003093C8002093C9009093CA00D5
:100250001092C5001092CD00813051F018F082301C
:1002600069F012C087E68093C4008093CC0011C06F
:1002700083E38093C4008093CC000BC082E2809320
:10028000C4008093CC0005C087E68093C4008093AF
:10029000CC0010920102109200020895672B41F0E9
:1002A000E8ECF0E0908195FFFDCF8093CE000895BB
:1002B000E0ECF0E0908195FFFDCF8093C6000895BB
:1002C0001F920F920FB60F9211240BB60F928F93BD
:1002D0009F93EF93FF93E0ECF0E080818823ECF7AD
:1002E000E0910102F0E08091C600EE5DFD4F808359
:1002F0008091010290E001968F719078992324F407
:100300000197806E9F6F019680930102FF91EF919C
:100310009F918F910F900BBE0F900FBE0F901F906B
:1003200018951F920F920FB60F9211240BB60F92D1
:100330008F939F93EF93FF93E8ECF0E08081882305
:10034000ECF7E0910002F0E08091CE00EE5FFD4F0F
:1003500080838091000290E001968F7190789923BC
:1003600024F40197806E9F6F019680930002FF91A5
:10037000EF919F918F910F900BBE0F900FBE0F903A
:080380001F901895F894FFCFBF
:00000001FF
