:100000007EC000000C943D0D9BC0000099C0000014
:1000100097C0000095C0000093C0000091C0000090
:100020008FC000008DC000008BC0000089C00000A0
:1000300087C0000085C0000083C0000081C00000B0
:100040007FC000000C940B0A7BC0000079C0000048
:1000500077C0000075C0000073C0000071C00000D0
:100060006FC000000C947D0E6BC0000069C00000E2
:1000700067C0000065C0000063C0000061C00000F0
:100080000C94D00A5DC000005BC0000059C00000A5
:100090000C94AE0E55C0000053C0000051C00000CB
:1000A0004FC000004DC000004BC0000049C0000020
:1000B00047C0000045C0000043C0000041C0000030
:1000C0003FC000003DC000003BC0000039C0000040
:1000D00037C0000035C0000033C0000031C0000050
:1000E0002FC000000B06F1050B061A06BF062906F5
:1000F000E20512074707E907EB07210898081124D2
:100100001FBECFEFD1E2DEBFCDBF00E00CBF12E0DB
:10011000A0E0B2E0ECE8F3E200E00BBF02C0079021
:100120000D92A831B107D9F725E1A8E1B2E001C0ED
:100130001D92A431B207E1F70E94E70A0C94C411A2
:100140005FCF0F921F922F923F924F925F926F92CA
:100150007F928F929F92AF92BF92CF92DF92EF9257
:10016000FF920F931F932F933F934F935F936F9340
:100170007F938F939F93AF93BF93CF93DF93EF932F
:10018000FF930FB70F93FCB7FF93EDB7FEB7E09364
:100190001115F0931215E091EF14F091F014EDBFEA
:1001A000FEBFFF91FCBF0F910FBFFF91EF91DF9159
:1001B000CF91BF91AF919F918F917F916F915F91FF
:1001C0004F913F912F911F910F91FF90EF90DF90F2
:1001D000CF90BF90AF909F908F907F906F905F90E7
:1001E0004F903F902F901F900F9018950F921F9255
:1001F0002F923F924F925F926F927F928F929F9237
:10020000AF92BF92CF92DF92EF92FF920F931F9324
:100210002F933F934F935F936F937F938F939F930E
:10022000AF93BF93CF93DF93EF93FF930FB70F93EA
:10023000FCB7FF93EDB7FEB7E093EF14F093F01423
:10024000E0911115F0911215EDBFFEBFFF91FCBFBB
:100250000F910FBFFF91EF91DF91CF91BF91AF91C0
:100260009F918F917F916F915F914F913F912F91CE
:100270001F910F91FF90EF90DF90CF90BF90AF90C4
:100280009F908F907F906F905F904F903F902F90B6
:100290001F900F90089580E480937C0087E88093FE
:1002A0007A000895ECE7F0E090818770987F892BC1
:1002B0008083EAE7F0E0808180648083808186FD2E
:1002C000FDCF8091780090917900089581E080932E
:1002D0001802EBE0F1E080818058808383ED90E3A9
:1002E0000197F1F700C00000808180588083089555
:1002F000E2E0F1E090819F7E908388231CF490815E
:1003000090619083E2E0F1E09081977F908386FF97
:1003100003C0908198609083739885FD739AA59827
:1003200084FDA59AE2E0F1E080818064808385E02D
:100330008A95F1F7000080818F7B80830895CF93A9
:10034000C82FE2E0F1E080818F7D80838C2FD0DFA9
:100350008C2F8295807FCCDF87EC90E00197F1F7BE
:1003600000C00000C43018F0C03850F007C08FE360
:100370009FE10197F1F700C00000C0E8C0930002C0
:10038000CF910895CF93C82FE2E0F1E080818062A1
:1003900080838C2FADDF8C2F8295807FA9DF87EC47
:1003A00090E00197F1F700C00000809100028F5F9C
:1003B00080930002803921F0803D21F480E801C063
:1003C00080ECBDDFCF910895CF93DF93EC0188815E
:1003D000882329F02196D6DF89918111FCCFDF9106
:1003E000CF9108959D9A6B9AE1E0F1E08081886059
:1003F000808380818061808380818062808380812E
:1004000080648083E2E0F1E080818F7B8083808163
:100410008F7D80838FE59AEE0197F1F700C0000091
:1004200080E366DF8FE090E40197F1F700C0000001
:1004300080E35EDF8FE891E00197F1F700C00000F4
:1004400080E356DF87EC90E00197F1F700C00000F1
:1004500080E24EDF87EC90E00197F1F700C00000EA
:1004600088E26DDF88E06BDF81E069DF86E067DFCF
:100470008CE065CF0895EAE0F1E0808181608083BF
:100480000895EAE0F1E08081826080830895EAE0E7
:10049000F1E08081846080830895EAE0F1E080816A
:1004A000806280830895EAE0F1E080818064808347
:1004B0000895EBE0F1E0908121E030E002C0220FEE
:1004C000331F8A95E2F7292B20830895EBE0F1E0B2
:1004D000908121E030E002C0220F331F8A95E2F7BD
:1004E00020952923208308950F931F93CF93DF93A3
:1004F00000D000D0CDB7DEB787E0D4DE182F092FAB
:1005000086E0D0DE9F938F930F931F938FE092E04E
:100510009F938F938E010F5F1F4F1F930F930E9426
:10052000FB0E61E070E0C8010E94690E0FB6F894FE
:10053000DEBF0FBECDBF26960FB6F894DEBF0FBE4E
:10054000CDBFDF91CF911F910F910895CF93DF938E
:10055000CDB7DEB760970FB6F894DEBF0FBECDBF44
:100560009ADE40DF249A2C9ACE0101962DDF0E945C
:10057000DF0D2FEF83EC99E0215080409040E1F7B0
:1005800000C00000B1DFF5CF8091290290912A02CE
:10059000892B51F0F894E0912B02F0912C02E35F4B
:1005A000FE4F84E0808322CE0895EF92FF920F9356
:1005B0001F93CF93DF931F921F92CDB7DEB79A831D
:1005C0008983DC017C0104E0E00EF11C80E091E015
:1005D000F7018C01119201501040E1F7FD01ED5F30
:1005E000FE4F84EC92E08083319790833197608353
:1005F000319770833197108290E092939F5F92328F
:10060000E1F7A452BF4FE981FA81B383A283DF01EE
:10061000A55FBE4F11967C936E9312961C928091AB
:100620002502909126029183808389819A81FC0121
:10063000EB5FFE4F51834083329651834083329665
:1006400031832083719611821082349723E630E043
:100650003183208320912702309128022F5F3F4F62
:100660003093280220932702209125023091260200
:100670002F5F3F4F3093260220932502729781E02F
:1006800080834DE152E06FEC74E1CE0101960E944F
:10069000930BE981FA81808191810F900F90DF9116
:1006A000CF911F910F91FF90EF900895CF93DF931B
:1006B000EC018091270290912802409721F18091CE
:1006C0009103882371F0AFEAB4E0E1E0F0E09C919F
:1006D000992349F03196A25EBE4FE031F105B9F79A
:1006E00002C0E0E0F0E09A01AB01BE01AEE1B1E092
:1006F000EA9FC001EB9F900DFA9F900D1124835744
:100700009D4F53DF00C0DF91CF910895FC01809190
:100710002302909124029183808381E082838091DF
:100720002302909124020196909324028093230245
:10073000808191810895FC01809121029091220293
:100740009183808381E082831482138280912102CD
:10075000909122020196909322028093210280813F
:1007600091810895CF93DF9310922802109227026F
:1007700010922A021092290210922402109223024F
:10078000109222021092210210922602109225024B
:10079000EDE8F2E0A1E9B3E04DE654E12EE131E00D
:1007A00083E690E0EF01B901199261507040E1F7E2
:1007B0001C9253969C938E93529711821082E25E04
:1007C000FE4FA25EBE4FE417F50761F7E7E5F2E0E2
:1007D0002FE832E087E0DF011297ED01682F1992D0
:1007E0006A95E9F710823796E217F307A1F7EFE26F
:1007F000F2E027E532E085E0DF011297ED01682F96
:1008000019926A95E9F710823596E217F307A1F776
:10081000DF91CF91089581E090E00E94C4116DE1D5
:1008200072E08FEC94E10E945E0CFC0190932C022C
:1008300080932B02892B09F4EEDF828193819093C0
:10084000F0148093EF1482E0DF01AC5FBE4F8C9315
:1008500080819181029720F482E090E02ACE089571
:1008600080819181029721F485E090E022CE089565
:1008700080819181039719F486E090E01ACE089563
:100880000F931F93CF93DF931F921F92CDB7DEB7C5
:10089000A0912B02B0912C02FD01EC5EFE4F408135
:1008A0005181E5E5F2E000E010E08081918184175C
:1008B000950739F00F5F1F4F379608301105A9F7DC
:1008C000F7C08D919C91119727E0209FF001219F07
:1008D000F00D1124EB5AFD4F23813481281739077D
:1008E00009F0E6C0AC5FBE4F8C91863009F04DC078
:1008F00069E172E081EF94E179D79A838983009767
:1009000079F487E0809FF001819FF00D1124EB5A6C
:10091000FD4F1682158281E0828314821382C8C043
:1009200027E0209FF001219FF00D1124EB5AFD4F8D
:1009300021E030E036832583DC012D913C91348326
:10094000238320912B0230912C02D901A95FBE4F45
:100950004D915C911197FC01E95FFE4F51834083FB
:10096000339781E08083F901EB5FFE4F4081518135
:1009700011965C934E93319780834DE152E06FEC7A
:1009800074E1CE010196CFD693C087E0809FF0013D
:10099000819FF00D1124EB5AFD4F858196818230A5
:1009A000910560F027E0209FF001219FF00D1124B8
:1009B000EB5AFD4F0197968385837AC069E172E017
:1009C00081EF94E113D79A8389830097A9F587E093
:1009D000809FF001819FF00D1124EB5AFD4F81E0C3
:1009E00082831682158214821382E0912B02F09189
:1009F0002C02DF01AB5FBE4F8D919C911197129637
:100A000011969C938E9380819181029720F482E0CD
:100A100090E04FDD4DC080819181029721F485E007
:100A200090E047DD45C080819181039709F040C087
:100A300086E090E03EDD3CC027E0209FF001219F52
:100A4000F00D1124EB5AFD4F21E030E03683258371
:100A5000DC012D913C913483238320912B02309132
:100A60002C02D901A95FBE4F4D915C911197FC01F9
:100A7000E95FFE4F51834083339781E08083F90122
:100A8000EB5FFE4F4081518111965C934E933197FD
:100A900080834DE152E06FEC74E1CE01019643D6C4
:100AA0004DE152E06FEC74E18BE292E03CD6B7DEB0
:100AB0000F900F90DF91CF911F910F9108952F927A
:100AC0003F924F925F926F927F928F929F92AF92DE
:100AD000BF92CF92DF92EF92FF920F931F93CF932B
:100AE000DF9300D01F92CDB7DEB78091290290919D
:100AF0002A02892B09F006C48091270290912802CE
:100B0000892B09F4FFC3F89481E090E090932A02C6
:100B10008093290284DE0F2EFDE2EF2EF2E0FF2EFD
:100B2000F02D0F2EFEE1AF2EBB24B394F02D0F2E2F
:100B3000F3E62F2E312CF02D88248394912C0F2E48
:100B4000F5E5CF2EF2E0DF2EF02D0DE812E00F2EAE
:100B5000FAE06F2E712CF02DE0912B02F0912C0217
:100B6000DF01A35FBE4F1C92828193819093F014AA
:100B70008093EF14E6DA82E090E0A8DC85E090E074
:100B8000A5DC86E090E0A2DC80912B0290912C0203
:100B90009C838B838091EF149091F014AB81BC8186
:100BA00013969C938E931297FD01E35FFE4FE081B5
:100BB000F0E0ED30F10580F68827EE58FF4F8F4FBB
:100BC0000C94F30EEB81FC81E45EFE4F80819181F9
:100BD000EDE8F2E0208131812817390709F089C05A
:100BE0000DC3EB81FC81E75FFE4F40815181EB81BA
:100BF000FC81EB5FFE4F60817181EB81FC81E55FE1
:100C0000FE4F8081918152DDEB81FC81E25FFE4FDE
:100C100091838083A1CFEB81FC81EC5FFE4F81E06B
:100C200080834DE152E06FEC74E18BE292E07BD582
:100C3000F6DD92CFEB81FC81EC5FFE4F83E0808399
:100C40004BE152E06FEA74E18BE292E0FBD4E7DD26
:100C500083CFAB81BC812D913C911197FD01E45E66
:100C6000FE4F808191812817390751F08081918151
:100C7000EDE8F2E0208131812817390741F4ADC257
:100C8000EB81FC81E65EFE4F918280821AC0EBEA26
:100C9000F3E0C401AB81BC81A45EBE4F6B817C815B
:100CA0002D913C911197408151814217530709F4CE
:100CB00097C20196E25EFE4F8031910589F77C83F1
:100CC0006B83EB81FC81E65EFE4F80819181892BF5
:100CD00009F442CFEB81FC81EC5FFE4F81E0808321
:100CE0004DE152E06FEC74E18BE292E01CD597DDB0
:100CF00033CFEBEAF3E0C401AB81BC81A45EBE4F0D
:100D00006B817C812D913C911197408151814217DB
:100D1000530709F476C20196E25EFE4F80319105D9
:100D200089F71ACF8A9D90018B9D300D9A9D300DC9
:100D30001124C90183579D4FFC01E65EFE4F1182CD
:100D40001082EB81FC81E95FFE4F20813181FC0143
:100D5000E95FFE4F808191818217930708F0FCCEF6
:100D6000EB81FC81EC5FFE4F81E080834DE152E03E
:100D70006FEC74E18BE292E0D6D451DDEDCEEB81E5
:100D8000FC81E95FFE4F11821082EB81FC81EB5FF9
:100D9000FE4F11821082EB81FC81EC5FFE4F86E0FA
:100DA0008083DC82CB82E0912B02F0912C02808147
:100DB0009181AB81BC8113962D913C91149728179A
:100DC000390739F48D919C91EC5EFE4F91838083BD
:100DD00057DDEB81FC813796FC83EB83E017F1074D
:100DE00011F7E0912B02F0912C02DF01AC5FBE4FB6
:100DF0001C92529611963C922E921F9711967C92BD
:100E00006E92129711967C926E921182108280914E
:100E1000270290912802019790932802809327023D
:100E2000FEDC9ACE8091230290912402089741F132
:100E3000D60112968C91882389F0EEE5F2E09401B8
:100E40004B815C818081882361F02F5F3F4F379613
:100E500028303105B9F75C834B8305C020E030E0D2
:100E600002C05C834B83C901880F991F880F991FAB
:100E7000880F991F821B930B8B5A9D4F47DC2C01C7
:100E8000EB81FC81E25FFE4F5182408265CEEB81B7
:100E9000FC81EC5EFE4F40815181F60180819181A1
:100EA0004817590709F4BFC1C4016B817C812781B0
:100EB00030854217530709F4B9C101963796883037
:100EC0009105A9F749CEFC01EE0FFF1FEE0FFF1FA2
:100ED000EE0FFF1FE81BF90BEB5AFD4F82E08283F8
:100EE000AB81BC818D919C91948383838581968114
:100EF00001969683858330CEFC01EE0FFF1FEE0F27
:100F0000FF1FEE0FFF1FE81BF90BEB5AFD4F23816C
:100F10003481EB81FC81408151812417350789F4AC
:100F2000FC01EE0FFF1FEE0FFF1FEE0FFF1FE81B70
:100F3000F90BEB5AFD4F8581968101969683858347
:100F40000BCEEDE8F2E080E090E06B817C814081A7
:100F500051812417350719F42115310531F4019613
:100F6000E25EFE4F8031910591F77C836B83FB013C
:100F7000E95FFE4F208131818A9DF0018B9DF00D4C
:100F80009A9DF00D1124EC56FC4F4081518124179D
:100F9000350780F4FB01E95FFE4F208131818A9D96
:100FA000F0018B9DF00D9A9DF00D1124EC56FC4F35
:100FB00031832083EB81FC81EC5FFE4F84E08083F2
:100FC00049E152E061EF74E18BE292E00BD327DC60
:100FD000C3CD56DCC1CD80912102909122020897A9
:100FE00031F1D70112968C91882381F0E4E3F2E08D
:100FF000C4014B815C812081222359F001963596F2
:1010000088309105C1F75C834B8305C080E090E098
:1010100002C05C834B839C01220F331F220F331FBE
:10102000820F931F835D9D4F86DB9A838983AB81FB
:10103000BC81A25FBE4FE981FA811196FC93EE93C9
:101040008BCDEB81FC81E85EFE4F40815181D70161
:101050008D919C914817590709F4FAC0F701C40112
:101060006B817C81258136814217530709F4F3C0D7
:101070000196359688309105A9F73DC0FC01EE0F29
:10108000FF1FEE0FFF1FE80FF91FE35DFD4F2281E9
:10109000223069F4FC01EE0FFF1FEE0FFF1F8E0FD1
:1010A0009F1FFC01E35DFD4F81E0828324C0EB8143
:1010B000FC81EA5EFE4F51834083EB81FC812081FD
:1010C0003181FC01EE0FFF1FEE0FFF1F8E0F9F1FE0
:1010D000FC01E35DFD4F34832383EB81FC81EC5FF6
:1010E000FE4F85E080834DE152E06FEC74E18BE2CE
:1010F00092E019D394DBE0912B02F0912C028081D5
:101100009181029720F482E090E0D3D925CD8081AF
:101110009181029721F485E090E0CBD91DCD8081AB
:101120009181039709F018CD86E090E0C2D914CDE3
:10113000EB81FC81E85EFE4F40815181D7018D91AA
:101140009C914817590709F497C0F701C4016B81B6
:101150007C81258136814217530709F490C001969E
:10116000359688309105A9F7F7CC80819181481791
:10117000590709F497C02F5F3F4FE25EFE4F2031C1
:10118000310599F7CB01FB01EE0FFF1FEE0FFF1F9B
:101190008E0F9F1FFC01E35DFD4F82E08283DCCC5C
:1011A0002A9DF0012B9DF00D3A9DF00D1124E9557B
:1011B000FC4F80819181892B09F0CECCEB81FC81A1
:1011C000EC5FFE4F81E080834DE152E06FEC74E113
:1011D0008BE292E0A8D223DBBFCC80E090E002C09B
:1011E0007C836B838A9DF0018B9DF00D9A9DF00DA1
:1011F0001124E955FC4F9182808263CD80E090E01C
:1012000002C07C836B838A9DF0018B9DF00D9A9DBB
:10121000F00D1124E955FC4F208131812130310539
:1012200009F09ACC7FCD80E090E002C07C836B8394
:10123000FC01EE0FFF1FEE0FFF1FEE0FFF1FE81B5D
:10124000F90BEB5AFD4F2281213009F055CE3BCEF0
:1012500080E090E002C07C836B83FC01EE0FFF1FF7
:10126000EE0FFF1FE80FF91FE35DFD4F238134816F
:10127000232B09F040CF02CF80E090E002C07C83B6
:101280006B83E3EAF3E0208131814217530739F0A1
:10129000E1ECF4E09401AB81BC81BC0166CF20E0BD
:1012A00030E003C0BC83AB83CB012A9DA0012B9D02
:1012B000500D3A9D500D112443575D4FFA01EC5FDC
:1012C000FE4F61E06083729631822082FC01EE0F56
:1012D000FF1FEE0FFF1F8E0F9F1FFC01E35DFD4FF1
:1012E00014821382EB81FC81E95FFE4F8081918142
:1012F000FA01E95FFE4F408151814817590708F410
:101300004FCF2ACC0F900F900F900F90DF91CF917D
:101310001F910F91FF90EF90DF90CF90BF90AF9013
:101320009F908F907F906F905F904F903F902F9005
:1013300008952091290230912A02232BF1F0F8948C
:1013400020912B0230912C02F901E35FFE4FA1E0C6
:10135000A08332979183808336977183608334961C
:10136000518340830E94F600E0912B02F0912C0201
:10137000E25FFE4F80819181089598C90895809120
:10138000290290912A02892B59F0F894E0912B02BE
:10139000F0912C02E35FFE4F82E080830C94F60014
:1013A000089575D880D879D866D86BD8F8941092FB
:1013B0008000E1E8F0E01082109285001092840035
:1013C00080E792E090938900809388008081886014
:1013D0008083808184608083EFE6F0E0808182609A
:1013E000808310929000E1E9F0E010821092950065
:1013F0001092940083E294EF909399008093980068
:1014000080818860808380818460808382E0809393
:101410007100789408951F920F920FB60F921124C5
:101420000BB60F92DF92EF92FF920F931F932F93C1
:101430003F934F935F936F937F938F939F93AF935C
:10144000BF93EF93FF93CF93DF9300D01F92CDB75D
:10145000DEB780911B0290911C0201979A838983C9
:1014600089819A8199230CF47CC0E981FA81EE0F7D
:10147000FF1FE155FB4E0190F081E02DE05FFE4F34
:101480002081318180911F02909120028217930761
:1014900008F467C0E981FA81EE0FFF1FE155FB4EAA
:1014A0000190F081E02DEE5EFE4F20813181809130
:1014B00094009091950061E772E081D46217730700
:1014C00058F54FC0E981FA81EE0FFF1FE155FB4E41
:1014D0000190F081E02DE05FFE4F2081318180910D
:1014E0001F029091200282179307D8F1E981FA81B7
:1014F000EE0FFF1FE155FB4E0190F081E02DEE5EF7
:10150000FE4F20813181F70180819181B80157D44C
:101510006217730750F425C0DD24D3940F2EF4E92D
:10152000EF2EF12CF02D01E712E06BE172E08FEA73
:1015300094E11CD29C838B83FC01EC5FFE4FD08234
:101540004DE152E06FEC74E1CE010396ECD089815D
:101550009A8101979A83898389819A8199230CF0D2
:10156000B1CF0DDF0F900F900F900F90DF91CF91C3
:10157000FF91EF91BF91AF919F918F917F916F916B
:101580005F914F913F912F911F910F91FF90EF909D
:10159000DF900F900BBE0F900FBE0F901F9018950D
:1015A0001F920F920FB60F9211248F939F938091E9
:1015B0001F029091200201969093200280931F02B7
:1015C0009F918F910F900FBE0F901F901895E9DE9D
:1015D000C9D841E050E060E070E086EA92E0A9DE20
:1015E0006ECA0895CF93DF93EA01288139812F30A5
:1015F000310529F1E881F9819F012150310972F00B
:10160000EE0FFF1FE60FF71FDB01329122913383AC
:101610002283EA17FB07C9F72FEF3FEFFC01808118
:1016200091812F5F3F4F220F331FFB01E20FF31F0A
:101630009183808388819981019699838883DF9142
:10164000CF910895CF92DF92EF92FF920F931F9365
:10165000CF93DF93EA01288139812F30310509F4D6
:1016600059C0A881B9811197FC01C080D180FD01CA
:10167000EE0FFF1FEB01CE0FDF1F28813981BB2347
:10168000CCF1FE017601C0EFEC1ACEEFFC0ADEEEE3
:10169000CD1ADEEFDD0A0BC0208131813383228336
:1016A000119732912291AF3FCFEFBC0719F1E701BB
:1016B00008811981E901C05FDE4F0990D881C02DF2
:1016C000C017D10748F3E70108811981E901C05F1C
:1016D000DE4F0990D881C02D0C171D0758F0E60188
:1016E000088119812E5E3E4FE90128813981021758
:1016F000130790F6FC01808191811196AA0FBB1F00
:10170000A60FB71F8D939C93EA018881998101965A
:1017100099838883DF91CF911F910F91FF90EF9074
:10172000DF90CF900895CF92DF92EF92FF920F93C8
:101730001F93CF93DF936A01EA01288139812F300B
:10174000310509F44AC02881398121503109FC0151
:1017500000811181F901EE0FFF1FDB01AE0FBF1FEA
:101760004D915C9133233CF1D801A95FBE4FED90C0
:10177000FC90DA01A95FBE4F4D915C91E416F5062D
:10178000D0F0E60FF71F095F1E4FA081B181B38330
:10179000A28321503109B291A2912F3F4FEF34071C
:1017A00051F0E801E880F980A95FBE4F4D915C914E
:1017B000E416F50650F7FC01808191812F5F3F4FC1
:1017C000220F331FFB01E20FF31F91838083E60199
:1017D00088819981019699838883DF91CF911F91A8
:1017E0000F91FF90EF90DF90CF9008950F931F938C
:1017F000CF93DF93EB0128813981232B09F454C067
:1018000028813981215031090AF451C0E901CC0FF6
:10181000DD1FFC01EC0FFD1FA081B181FD01EC5E1D
:10182000FE4F0190F081E02DE417F50781F40AC026
:10183000BA91AA91FD01EC5EFE4F0081118104175F
:10184000150739F4109759F480E090E032C0C80FC2
:10185000D91F2150310960F780E090E02AC0EB01E8
:10186000488159814150510924173507A4F4A90131
:10187000440F551FFC01E40FF51F82819381819372
:1018800091932F5F3F4FEB0148815981415051099E
:101890002417350794F3FB0180819181019791838F
:1018A00080838A2F9B2F05C080E090E002C080E0FB
:1018B00090E0DF91CF911F910F910895CF93DF9327
:1018C000EB0128813981232B09F448C0E881F98193
:1018D0009F01215031090AF444C0EE0FFF1FE80FA9
:1018E000F91F52914291DA01A65EBE4F6D917C9133
:1018F0001197672B59F456976C91613039F4F901BF
:101900004115510549F480E090E02DC02150310986
:1019100040F780E090E027C06881798161507109CB
:10192000261737079CF4EE0FFF1FDC01AE0FBF1F19
:1019300012968D919C9113978D939D932F5F3F4F9E
:10194000E881F98131972E173F0794F388819981B7
:10195000019799838883842F952F05C080E090E0BC
:1019600002C080E090E0DF91CF910895DB012D91DE
:101970003C911197232BA9F02D913C911197F901DE
:10198000E150F048EE0FFF1FE80FF91F80819181B1
:101990002D913C9111972150310911963C932E9332
:1019A000089508952D988FEF04D12D9A08950F93DF
:1019B0001F93CF93DF938B01D42F2D988F7180626B
:1019C000F8D0C82F6D2FC801E1D02D9A8C2FDF9150
:1019D000CF911F910F9108950F931F93CF93DF9392
:1019E000EB01142F442369F0FB012FEF240F30E0AB
:1019F0002F5F3F4F260F371F9FEF9193E217F3079B
:101A0000E1F72D988F71D5D0082F412FBE0180E0CE
:101A100090E0A5D02D9A802FDF91CF911F910F914B
:101A20000895CF93DF931F92CDB7DEB741E0BE019B
:101A30006F5F7F4F80E0D0DF898180FD10C08160C3
:101A4000898341E0BE016F5F7F4F80E0B0DF85E1B9
:101A50008A95F1F700C085E18A95F1F700C00F90F3
:101A6000DF91CF91089580910902882329F045E004
:101A700064E072E08AE09BCF08951F920F920FB648
:101A80000F9211240BB60F922F933F934F935F93B6
:101A90006F937F938F939F93AF93BF93EF93FF9336
:101AA000CF93DF931F92CDB7DEB72C987BDF89836E
:101AB00086FF04C08E7086950E946601898185FF2D
:101AC0001BC010921315CFDFACDF80910202909102
:101AD0000302880F991F9093030280930202809162
:101AE00002029091030281609093030280930202AC
:101AF00081E08093010214C084FF12C081EE59D0AE
:101B000010921315B0DF8DDF8091020290910302D5
:101B1000880F991F90930302809302021092010292
:101B200080E7898341E0BE016F5F7F4F87E03FDF41
:101B30002C9A0F90DF91CF91FF91EF91BF91AF91D0
:101B40009F918F917F916F915F914F913F912F91D5
:101B50000F900BBE0F900FBE0F901F90189544234F
:101B6000A1F0FC01A62FB72F4150242F30E02F5FAA
:101B70003F4F280F391F91919EBD0DB407FEFDCF39
:101B80009EB59D93E217F307B1F70895662381F0A0
:101B9000FC016150262F30E02F5F3F4F280F391F87
:101BA00091919EBD0DB407FEFDCFE217F307C1F77B
:101BB00008958EBD0DB407FEFDCF8EB508953D9AF4
:101BC00045982FEF39E688E1215030408040E1F719
:101BD00000C00000459A9FEF27EA31E6915020406F
:101BE0003040E1F700C0000083E045989FEF23EC10
:101BF00039E0915020403040E1F700C00000459AA4
:101C00009FEF23EC39E0915020403040E1F700C0D5
:101C10000000815051F72ED060E070E080E847D09E
:101C20008FEF99EF20E0815090402040E1F700C015
:101C3000000060E070E081E83AD060E070E089E0A8
:101C400036D03FEF81EE94E0315080409040E1F794
:101C500000C0000081E00ED060E070E082E827D094
:101C60002FEF39EF80E0215030408040E1F700C095
:101C700000000895E4E6F0E080818D7F808382E0BB
:101C80008093C00088E98093C10086E08093C20001
:101C900087E690E09093C5008093C4009093CD00B8
:101CA0008093CC0010926E1410926D140895672BDF
:101CB00041F0E8ECF0E0908195FFFDCF8093CE00FD
:101CC0000895E0ECF0E0908195FFFDCF8093C60091
:101CD00008950F931F93CF93DF93EC01888188239E
:101CE00039F08B012196B801E2DF89918111FBCF98
:101CF000DF91CF911F910F9108951F920F920FB610
:101D00000F9211240BB60F928F939F93EF93FF9333
:101D1000E0ECF0E080818823ECF7E0916E14F0E0D5
:101D20008091C600E157FB4E808380916E1490E055
:101D300001968F719078992324F40197806E9F6F9C
:101D4000019680936E14FF91EF919F918F910F9068
:101D50000BBE0F900FBE0F901F9018951F920F9201
:101D60000FB60F9211240BB60F928F939F93EF93A0
:101D7000FF93E8ECF0E080818823ECF7E0916D14AC
:101D8000F0E08091CE00E159FB4E808380916D148C
:101D900090E001968F719078992324F40197806EDA
:101DA0009F6F019680936D14FF91EF919F918F919A
:101DB0000F900BBE0F900FBE0F901F901895AA1B8F
:101DC000BB1B51E107C0AA1FBB1FA617B70710F026
:101DD000A61BB70B881F991F5A95A9F78095909558
:101DE000BC01CD010895EE0FFF1F881F8BBF079028
:101DF000F691E02D19940F931F93CF93DF93CDB7F6
:101E0000DEB72E970FB6F894DEBF0FBECDBF0E899A
:101E10001F8986E08C831A8309838FEF9FE79E8357
:101E20008D83AE01465E5F4F688D798DCE01019640
:101E300011D02F813885F801E20FF31F10822E9602
:101E40000FB6F894DEBF0FBECDBFDF91CF911F91CB
:101E50000F9108952F923F924F925F926F927F92CF
:101E60008F929F92AF92BF92CF92DF92EF92FF92AA
:101E70000F931F93CF93DF93CDB7DEB72C970FB699
:101E8000F894DEBF0FBECDBF7C016B018A01FC015F
:101E900017821682838181FFB0C1CE0101964C0169
:101EA000F7019381F60193FD859193FF81916F0175
:101EB000882309F49EC1853239F493FD859193FFFF
:101EC00081916F01853221F4B70190E0C7D1E8CF4D
:101ED000512C312C20E02032A0F48B3269F030F408
:101EE000803259F0833269F420612CC08D3239F090
:101EF000803339F4216026C02260246023C028602A
:101F000021C027FD27C030ED380F3A3078F426FF86
:101F100006C0FAE05F9E300D1124532E13C08AE0F4
:101F2000389E300D1124332E20620CC08E3221F4E5
:101F300026FD5FC1206406C08C3611F4206802C003
:101F4000883641F4F60193FD859193FF81916F01ED
:101F50008111C1CF982F9F7D9554933028F40C5F49
:101F60001F4FFFE3F9830DC0833631F0833771F0E3
:101F7000833509F057C021C0F801808189830E5F45
:101F80001F4F44244394512C540114C03801F2E0F3
:101F90006F0E711CF801A080B18026FF03C0652D73
:101FA00070E002C06FEF7FEFC5012C874CD12C0190
:101FB00083012C852F77222E16C03801F2E06F0E98
:101FC000711CF801A080B18026FF03C0652D70E070
:101FD00002C06FEF7FEFC5012C872AD12C012C8521
:101FE0002068222E830123FC19C0832D90E048161F
:101FF0005906A0F4B70180E290E030D13A94F5CFD1
:10200000F50127FC859127FE81915F01B70190E0E2
:1020100025D131103A94F1E04F1A5108411451047E
:1020200079F7DEC0843611F0893631F5F80127FFE3
:1020300007C060817181828193810C5F1F4F08C04E
:1020400060817181072E000C880B990B0E5F1F4F6A
:102050002F76722E97FF09C09095809570956195A7
:102060007F4F8F4F9F4F2068722E2AE030E0A401EF
:102070002DD1A82EA81843C0853729F42F7EB22E63
:102080002AE030E025C0F22FF97FBF2E8F36C1F055
:1020900018F4883579F0ADC0803719F0883721F011
:1020A000A8C02F2F2061B22EB4FE0DC08B2D8460EE
:1020B000B82E09C024FF0AC09F2F9660B92E06C013
:1020C00028E030E005C020E130E002C020E132E04D
:1020D000F801B7FE07C060817181828193810C5F36
:1020E0001F4F06C06081718180E090E00E5F1F4F3E
:1020F000A401ECD0A82EA818FB2DFF777F2E76FE2A
:102100000BC0372D3E7FA51450F474FE0AC072FC3C
:1021100008C0372D3E7E05C0BA2C372D03C0BA2C1F
:1021200001C0B52C34FF0DC0FE01EA0DF11D808108
:10213000803311F4397E09C032FF06C0B394B394E2
:1021400004C0832F867809F0B39433FD12C030FFAA
:1021500006C05A2CB31418F4530C5B18B32CB314E8
:1021600060F4B70180E290E03C8778D0B3943C857E
:10217000F6CFB31410F43B1801C0312C34FF11C05A
:10218000B70180E390E03C8769D03C8532FF16C000
:1021900031FD03C088E790E002C088E590E0B70118
:1021A0000CC0832F867851F031FF02C08BE201C052
:1021B00080E237FD8DE2B70190E050D0A51430F4F5
:1021C000B70180E390E04AD05A94F8CFAA94F40182
:1021D000EA0DF11D8081B70190E040D0A110F6CF4B
:1021E000332009F45DCEB70180E290E037D03A9415
:1021F000F7CFF7018681978102C08FEF9FEF2C9672
:102200000FB6F894DEBF0FBECDBFDF91CF911F9107
:102210000F91FF90EF90DF90CF90BF90AF909F9085
:102220008F907F906F905F904F903F902F90089588
:10223000FC010590615070400110D8F78095909591
:102240008E0F9F1F0895FC01615070400190011096
:10225000D8F7809590958E0F9F1F08950F931F9329
:10226000CF93DF93FB01238121FD03C08FEF9FEF0D
:1022700028C022FF16C0468157812481358142172C
:10228000530744F4A081B1819D012F5F3F4F3183FB
:1022900020838C93268137812F5F3F4F378326839E
:1022A00010C0EB01092F182F0084F185E02D19953E
:1022B000892BE1F68E819F8101969F838E83812FEA
:1022C000902FDF91CF911F910F910895FA01AA27C6
:1022D000283051F1203181F1E8946F936E7F6E5F69
:1022E0007F4F8F4F9F4FAF4FB1E03ED0B4E03CD017
:1022F000670F781F891F9A1FA11D680F791F8A1FFA
:10230000911DA11D6A0F711D811D911DA11D20D060
:1023100009F468943F912AE0269F11243019305D1A
:102320003193DEF6CF010895462F4770405D41930B
:10233000B3E00FD0C9F7F6CF462F4F70405D4A3358
:1023400018F0495D31FD4052419302D0A9F7EACF20
:10235000B4E0A6959795879577956795BA95C9F74F
:1023600000976105710508959B01AC010A2E069442
:102370005795479537952795BA95C9F7620F731FFB
:0C238000841F951FA01D0895F894FFCF46
:10238C008001FF00E7E7E7E7E7202000000000738B
:08239C002568752568756500D0
:00000001FF
